{
  "contractName": "MyTokenSale",
  "abi": [
    {
      "inputs": [
        {
          "internalType": "uint256",
          "name": "rate",
          "type": "uint256"
        },
        {
          "internalType": "address payable",
          "name": "wallet",
          "type": "address"
        },
        {
          "internalType": "contract IERC20",
          "name": "token",
          "type": "address"
        },
        {
          "internalType": "contract KYC",
          "name": "_kyc",
          "type": "address"
        },
        {
          "internalType": "contract Voting",
          "name": "_vtc",
          "type": "address"
        }
      ],
      "stateMutability": "nonpayable",
      "type": "constructor"
    },
    {
      "anonymous": false,
      "inputs": [
        {
          "indexed": true,
          "internalType": "address",
          "name": "purchaser",
          "type": "address"
        },
        {
          "indexed": true,
          "internalType": "address",
          "name": "beneficiary",
          "type": "address"
        },
        {
          "indexed": false,
          "internalType": "uint256",
          "name": "value",
          "type": "uint256"
        },
        {
          "indexed": false,
          "internalType": "uint256",
          "name": "amount",
          "type": "uint256"
        }
      ],
      "name": "TokensPurchased",
      "type": "event"
    },
    {
      "inputs": [
        {
          "internalType": "address",
          "name": "beneficiary",
          "type": "address"
        }
      ],
      "name": "buyTokens",
      "outputs": [],
      "stateMutability": "payable",
      "type": "function"
    },
    {
      "inputs": [],
      "name": "rate",
      "outputs": [
        {
          "internalType": "uint256",
          "name": "",
          "type": "uint256"
        }
      ],
      "stateMutability": "view",
      "type": "function"
    },
    {
      "inputs": [],
      "name": "token",
      "outputs": [
        {
          "internalType": "contract IERC20",
          "name": "",
          "type": "address"
        }
      ],
      "stateMutability": "view",
      "type": "function"
    },
    {
      "inputs": [],
      "name": "wallet",
      "outputs": [
        {
          "internalType": "address payable",
          "name": "",
          "type": "address"
        }
      ],
      "stateMutability": "view",
      "type": "function"
    },
    {
      "inputs": [],
      "name": "weiRaised",
      "outputs": [
        {
          "internalType": "uint256",
          "name": "",
          "type": "uint256"
        }
      ],
      "stateMutability": "view",
      "type": "function"
    },
    {
      "stateMutability": "payable",
      "type": "receive"
    },
    {
      "inputs": [],
      "name": "totalAmountCollected",
      "outputs": [
        {
          "internalType": "uint256",
          "name": "",
          "type": "uint256"
        }
      ],
      "stateMutability": "view",
      "type": "function"
    },
    {
      "inputs": [
        {
          "internalType": "address",
          "name": "_address",
          "type": "address"
        }
      ],
      "name": "isKycVerified",
      "outputs": [
        {
          "internalType": "bool",
          "name": "",
          "type": "bool"
        }
      ],
      "stateMutability": "view",
      "type": "function"
    },
    {
      "inputs": [
        {
          "internalType": "string",
          "name": "_description",
          "type": "string"
        },
        {
          "internalType": "uint256",
          "name": "_value",
          "type": "uint256"
        },
        {
          "internalType": "address payable",
          "name": "_recipient",
          "type": "address"
        }
      ],
      "name": "makeMoneyRequest",
      "outputs": [],
      "stateMutability": "nonpayable",
      "type": "function"
    },
    {
      "inputs": [
        {
          "internalType": "uint256",
          "name": "index",
          "type": "uint256"
        }
      ],
      "name": "voteYes",
      "outputs": [],
      "stateMutability": "nonpayable",
      "type": "function"
    },
    {
      "inputs": [
        {
          "internalType": "uint256",
          "name": "index",
          "type": "uint256"
        }
      ],
      "name": "getVoteResult",
      "outputs": [
        {
          "internalType": "bool",
          "name": "",
          "type": "bool"
        }
      ],
      "stateMutability": "nonpayable",
      "type": "function"
    },
    {
      "inputs": [
        {
          "internalType": "uint256",
          "name": "index",
          "type": "uint256"
        }
      ],
      "name": "getRequestDescription",
      "outputs": [
        {
          "internalType": "string",
          "name": "",
          "type": "string"
        }
      ],
      "stateMutability": "view",
      "type": "function"
    },
    {
      "inputs": [
        {
          "internalType": "uint256",
          "name": "index",
          "type": "uint256"
        }
      ],
      "name": "getRequestValue",
      "outputs": [
        {
          "internalType": "uint256",
          "name": "",
          "type": "uint256"
        }
      ],
      "stateMutability": "view",
      "type": "function"
    },
    {
      "inputs": [
        {
          "internalType": "uint256",
          "name": "index",
          "type": "uint256"
        }
      ],
      "name": "getRequestRecipient",
      "outputs": [
        {
          "internalType": "address payable",
          "name": "",
          "type": "address"
        }
      ],
      "stateMutability": "view",
      "type": "function"
    },
    {
      "inputs": [
        {
          "internalType": "uint256",
          "name": "index",
          "type": "uint256"
        }
      ],
      "name": "getRequestComplete",
      "outputs": [
        {
          "internalType": "bool",
          "name": "",
          "type": "bool"
        }
      ],
      "stateMutability": "view",
      "type": "function"
    },
    {
      "inputs": [
        {
          "internalType": "uint256",
          "name": "index",
          "type": "uint256"
        }
      ],
      "name": "getRequestApprovalCount",
      "outputs": [
        {
          "internalType": "uint256",
          "name": "",
          "type": "uint256"
        }
      ],
      "stateMutability": "view",
      "type": "function"
    }
  ],
  "bytecode": "0x60806040523480156200001157600080fd5b5060405162002320380380620023208339818101604052810190620000379190620002fa565b84848460016000819055506000831162000088576040517f08c379a00000000000000000000000000000000000000000000000000000000081526004016200007f90620004b0565b60405180910390fd5b600073ffffffffffffffffffffffffffffffffffffffff168273ffffffffffffffffffffffffffffffffffffffff161415620000fb576040517f08c379a0000000000000000000000000000000000000000000000000000000008152600401620000f290620004d2565b60405180910390fd5b600073ffffffffffffffffffffffffffffffffffffffff168173ffffffffffffffffffffffffffffffffffffffff1614156200016e576040517f08c379a000000000000000000000000000000000000000000000000000000000815260040162000165906200048e565b60405180910390fd5b8260038190555081600260006101000a81548173ffffffffffffffffffffffffffffffffffffffff021916908373ffffffffffffffffffffffffffffffffffffffff16021790555080600160006101000a81548173ffffffffffffffffffffffffffffffffffffffff021916908373ffffffffffffffffffffffffffffffffffffffff16021790555050505081600560006101000a81548173ffffffffffffffffffffffffffffffffffffffff021916908373ffffffffffffffffffffffffffffffffffffffff16021790555080600660006101000a81548173ffffffffffffffffffffffffffffffffffffffff021916908373ffffffffffffffffffffffffffffffffffffffff160217905550505050505062000615565b600081519050620002988162000593565b92915050565b600081519050620002af81620005ad565b92915050565b600081519050620002c681620005c7565b92915050565b600081519050620002dd81620005e1565b92915050565b600081519050620002f481620005fb565b92915050565b600080600080600060a086880312156200031357600080fd5b60006200032388828901620002e3565b9550506020620003368882890162000287565b945050604062000349888289016200029e565b93505060606200035c88828901620002b5565b92505060806200036f88828901620002cc565b9150509295509295909350565b60006200038b602483620004f4565b91507f43726f776473616c653a20746f6b656e20697320746865207a65726f2061646460008301527f72657373000000000000000000000000000000000000000000000000000000006020830152604082019050919050565b6000620003f3601483620004f4565b91507f43726f776473616c653a207261746520697320300000000000000000000000006000830152602082019050919050565b600062000435602583620004f4565b91507f43726f776473616c653a2077616c6c657420697320746865207a65726f20616460008301527f64726573730000000000000000000000000000000000000000000000000000006020830152604082019050919050565b60006020820190508181036000830152620004a9816200037c565b9050919050565b60006020820190508181036000830152620004cb81620003e4565b9050919050565b60006020820190508181036000830152620004ed8162000426565b9050919050565b600082825260208201905092915050565b6000620005128262000569565b9050919050565b6000620005268262000569565b9050919050565b60006200053a8262000505565b9050919050565b60006200054e8262000505565b9050919050565b6000620005628262000505565b9050919050565b600073ffffffffffffffffffffffffffffffffffffffff82169050919050565b6000819050919050565b6200059e8162000519565b8114620005aa57600080fd5b50565b620005b8816200052d565b8114620005c457600080fd5b50565b620005d28162000541565b8114620005de57600080fd5b50565b620005ec8162000555565b8114620005f857600080fd5b50565b620006068162000589565b81146200061257600080fd5b50565b611cfb80620006256000396000f3fe6080604052600436106100ec5760003560e01c80636ddfaed11161008a578063c236bb2211610059578063c236bb2214610349578063c2eb0a3a14610374578063ec8ac4d8146103b1578063fc0c546a146103cd57610103565b80636ddfaed114610255578063acbd857f14610292578063acf99d9d146102cf578063bfa0fc931461030c57610103565b8063519198ca116100c6578063519198ca14610187578063521eb273146101c45780635b8575a9146101ef5780636a1cf7211461022c57610103565b806309ff54b0146101085780632c4e722e146101315780634042b66f1461015c57610103565b36610103576101016100fc6103f8565b610400565b005b600080fd5b34801561011457600080fd5b5061012f600480360381019061012a9190611401565b610526565b005b34801561013d57600080fd5b506101466105bc565b60405161015391906119b3565b60405180910390f35b34801561016857600080fd5b506101716105c6565b60405161017e91906119b3565b60405180910390f35b34801561019357600080fd5b506101ae60048036038101906101a99190611468565b6105d0565b6040516101bb91906119b3565b60405180910390f35b3480156101d057600080fd5b506101d9610684565b6040516101e691906117f9565b60405180910390f35b3480156101fb57600080fd5b5061021660048036038101906102119190611468565b6106ae565b60405161022391906117f9565b60405180910390f35b34801561023857600080fd5b50610253600480360381019061024e9190611468565b610762565b005b34801561026157600080fd5b5061027c60048036038101906102779190611468565b6107f2565b6040516102899190611873565b60405180910390f35b34801561029e57600080fd5b506102b960048036038101906102b49190611345565b6108ab565b6040516102c6919061183d565b60405180910390f35b3480156102db57600080fd5b506102f660048036038101906102f19190611468565b61095f565b604051610303919061183d565b60405180910390f35b34801561031857600080fd5b50610333600480360381019061032e9190611468565b610a13565b604051610340919061183d565b60405180910390f35b34801561035557600080fd5b5061035e610ac9565b60405161036b91906119b3565b60405180910390f35b34801561038057600080fd5b5061039b60048036038101906103969190611468565b610ad8565b6040516103a891906119b3565b60405180910390f35b6103cb60048036038101906103c69190611345565b610400565b005b3480156103d957600080fd5b506103e2610b8c565b6040516103ef9190611858565b60405180910390f35b600033905090565b60026000541415610446576040517f08c379a000000000000000000000000000000000000000000000000000000000815260040161043d90611973565b60405180910390fd5b6002600081905550600034905061045d8282610bb6565b600061046882610d30565b905061047f82600454610d4e90919063ffffffff16565b60048190555061048f8382610d64565b8273ffffffffffffffffffffffffffffffffffffffff166104ae6103f8565b73ffffffffffffffffffffffffffffffffffffffff167f6faf93231a456e552dbc9961f58d9713ee4f2e69d15f1975b050ef0911053a7b84846040516104f59291906119ce565b60405180910390a36105078383610d72565b61050f610d76565b6105198383610de1565b5050600160008190555050565b600660009054906101000a900473ffffffffffffffffffffffffffffffffffffffff1673ffffffffffffffffffffffffffffffffffffffff16638a9cfd558484846040518463ffffffff1660e01b815260040161058593929190611895565b600060405180830381600087803b15801561059f57600080fd5b505af11580156105b3573d6000803e3d6000fd5b50505050505050565b6000600354905090565b6000600454905090565b6000600660009054906101000a900473ffffffffffffffffffffffffffffffffffffffff1673ffffffffffffffffffffffffffffffffffffffff1663519198ca836040518263ffffffff1660e01b815260040161062d91906119b3565b60206040518083038186803b15801561064557600080fd5b505afa158015610659573d6000803e3d6000fd5b505050506040513d601f19601f8201168201806040525081019061067d9190611491565b9050919050565b6000600260009054906101000a900473ffffffffffffffffffffffffffffffffffffffff16905090565b6000600660009054906101000a900473ffffffffffffffffffffffffffffffffffffffff1673ffffffffffffffffffffffffffffffffffffffff16635b8575a9836040518263ffffffff1660e01b815260040161070b91906119b3565b60206040518083038186803b15801561072357600080fd5b505afa158015610737573d6000803e3d6000fd5b505050506040513d601f19601f8201168201806040525081019061075b919061136e565b9050919050565b600660009054906101000a900473ffffffffffffffffffffffffffffffffffffffff1673ffffffffffffffffffffffffffffffffffffffff1663d7d1bbdb826040518263ffffffff1660e01b81526004016107bd91906119b3565b600060405180830381600087803b1580156107d757600080fd5b505af11580156107eb573d6000803e3d6000fd5b5050505050565b6060600660009054906101000a900473ffffffffffffffffffffffffffffffffffffffff1673ffffffffffffffffffffffffffffffffffffffff16636ddfaed1836040518263ffffffff1660e01b815260040161084f91906119b3565b60006040518083038186803b15801561086757600080fd5b505afa15801561087b573d6000803e3d6000fd5b505050506040513d6000823e3d601f19601f820116820180604052508101906108a491906113c0565b9050919050565b6000600560009054906101000a900473ffffffffffffffffffffffffffffffffffffffff1673ffffffffffffffffffffffffffffffffffffffff1663df235fe4836040518263ffffffff1660e01b815260040161090891906117de565b60206040518083038186803b15801561092057600080fd5b505afa158015610934573d6000803e3d6000fd5b505050506040513d601f19601f820116820180604052508101906109589190611397565b9050919050565b6000600660009054906101000a900473ffffffffffffffffffffffffffffffffffffffff1673ffffffffffffffffffffffffffffffffffffffff1663acf99d9d836040518263ffffffff1660e01b81526004016109bc91906119b3565b60206040518083038186803b1580156109d457600080fd5b505afa1580156109e8573d6000803e3d6000fd5b505050506040513d601f19601f82011682018060405250810190610a0c9190611397565b9050919050565b6000600660009054906101000a900473ffffffffffffffffffffffffffffffffffffffff1673ffffffffffffffffffffffffffffffffffffffff166303441006836040518263ffffffff1660e01b8152600401610a7091906119b3565b602060405180830381600087803b158015610a8a57600080fd5b505af1158015610a9e573d6000803e3d6000fd5b505050506040513d601f19601f82011682018060405250810190610ac29190611397565b9050919050565b6000610ad36105c6565b905090565b6000600660009054906101000a900473ffffffffffffffffffffffffffffffffffffffff1673ffffffffffffffffffffffffffffffffffffffff1663c2eb0a3a836040518263ffffffff1660e01b8152600401610b3591906119b3565b60206040518083038186803b158015610b4d57600080fd5b505afa158015610b61573d6000803e3d6000fd5b505050506040513d601f19601f82011682018060405250810190610b859190611491565b9050919050565b6000600160009054906101000a900473ffffffffffffffffffffffffffffffffffffffff16905090565b610bc08282610de5565b600560009054906101000a900473ffffffffffffffffffffffffffffffffffffffff1673ffffffffffffffffffffffffffffffffffffffff1663df235fe4336040518263ffffffff1660e01b8152600401610c1b91906117de565b60206040518083038186803b158015610c3357600080fd5b505afa158015610c47573d6000803e3d6000fd5b505050506040513d601f19601f82011682018060405250810190610c6b9190611397565b610caa576040517f08c379a0000000000000000000000000000000000000000000000000000000008152600401610ca1906118d3565b60405180910390fd5b600660009054906101000a900473ffffffffffffffffffffffffffffffffffffffff1673ffffffffffffffffffffffffffffffffffffffff1663d7bb99ba6040518163ffffffff1660e01b8152600401600060405180830381600087803b158015610d1457600080fd5b505af1158015610d28573d6000803e3d6000fd5b505050505050565b6000610d4760035483610e9d90919063ffffffff16565b9050919050565b60008183610d5c9190611a8a565b905092915050565b610d6e8282610eb3565b5050565b5050565b600260009054906101000a900473ffffffffffffffffffffffffffffffffffffffff1673ffffffffffffffffffffffffffffffffffffffff166108fc349081150290604051600060405180830381858888f19350505050158015610dde573d6000803e3d6000fd5b50565b5050565b600073ffffffffffffffffffffffffffffffffffffffff168273ffffffffffffffffffffffffffffffffffffffff161415610e55576040517f08c379a0000000000000000000000000000000000000000000000000000000008152600401610e4c90611913565b60405180910390fd5b6000811415610e99576040517f08c379a0000000000000000000000000000000000000000000000000000000008152600401610e9090611993565b60405180910390fd5b5050565b60008183610eab9190611ae0565b905092915050565b610f008282600160009054906101000a900473ffffffffffffffffffffffffffffffffffffffff1673ffffffffffffffffffffffffffffffffffffffff16610f049092919063ffffffff16565b5050565b610f858363a9059cbb60e01b8484604051602401610f23929190611814565b604051602081830303815290604052907bffffffffffffffffffffffffffffffffffffffffffffffffffffffff19166020820180517bffffffffffffffffffffffffffffffffffffffffffffffffffffffff8381831617835250505050610f8a565b505050565b6000610fec826040518060400160405280602081526020017f5361666545524332303a206c6f772d6c6576656c2063616c6c206661696c65648152508573ffffffffffffffffffffffffffffffffffffffff166110519092919063ffffffff16565b905060008151111561104c578080602001905181019061100c9190611397565b61104b576040517f08c379a000000000000000000000000000000000000000000000000000000000815260040161104290611953565b60405180910390fd5b5b505050565b60606110608484600085611069565b90509392505050565b6060824710156110ae576040517f08c379a00000000000000000000000000000000000000000000000000000000081526004016110a5906118f3565b60405180910390fd5b6110b78561117d565b6110f6576040517f08c379a00000000000000000000000000000000000000000000000000000000081526004016110ed90611933565b60405180910390fd5b6000808673ffffffffffffffffffffffffffffffffffffffff16858760405161111f91906117c7565b60006040518083038185875af1925050503d806000811461115c576040519150601f19603f3d011682016040523d82523d6000602084013e611161565b606091505b5091509150611171828286611190565b92505050949350505050565b600080823b905060008111915050919050565b606083156111a0578290506111f0565b6000835111156111b35782518084602001fd5b816040517f08c379a00000000000000000000000000000000000000000000000000000000081526004016111e79190611873565b60405180910390fd5b9392505050565b600061120a61120584611a28565b6119f7565b90508281526020810184848401111561122257600080fd5b61122d848285611bb8565b509392505050565b600061124861124384611a28565b6119f7565b90508281526020810184848401111561126057600080fd5b61126b848285611bc7565b509392505050565b60008135905061128281611c69565b92915050565b60008135905061129781611c80565b92915050565b6000815190506112ac81611c80565b92915050565b6000815190506112c181611c97565b92915050565b600082601f8301126112d857600080fd5b81356112e88482602086016111f7565b91505092915050565b600082601f83011261130257600080fd5b8151611312848260208601611235565b91505092915050565b60008135905061132a81611cae565b92915050565b60008151905061133f81611cae565b92915050565b60006020828403121561135757600080fd5b600061136584828501611273565b91505092915050565b60006020828403121561138057600080fd5b600061138e8482850161129d565b91505092915050565b6000602082840312156113a957600080fd5b60006113b7848285016112b2565b91505092915050565b6000602082840312156113d257600080fd5b600082015167ffffffffffffffff8111156113ec57600080fd5b6113f8848285016112f1565b91505092915050565b60008060006060848603121561141657600080fd5b600084013567ffffffffffffffff81111561143057600080fd5b61143c868287016112c7565b935050602061144d8682870161131b565b925050604061145e86828701611288565b9150509250925092565b60006020828403121561147a57600080fd5b60006114888482850161131b565b91505092915050565b6000602082840312156114a357600080fd5b60006114b184828501611330565b91505092915050565b6114c381611b4c565b82525050565b6114d281611b3a565b82525050565b6114e181611b5e565b82525050565b60006114f282611a58565b6114fc8185611a6e565b935061150c818560208601611bc7565b80840191505092915050565b61152181611b94565b82525050565b600061153282611a63565b61153c8185611a79565b935061154c818560208601611bc7565b61155581611c58565b840191505092915050565b600061156d602783611a79565b91507f4b7963206e6f7420636f6d706c657465642c207075726368617365206e6f742060008301527f616c6c6f776564000000000000000000000000000000000000000000000000006020830152604082019050919050565b60006115d3602683611a79565b91507f416464726573733a20696e73756666696369656e742062616c616e636520666f60008301527f722063616c6c00000000000000000000000000000000000000000000000000006020830152604082019050919050565b6000611639602a83611a79565b91507f43726f776473616c653a2062656e656669636961727920697320746865207a6560008301527f726f2061646472657373000000000000000000000000000000000000000000006020830152604082019050919050565b600061169f601d83611a79565b91507f416464726573733a2063616c6c20746f206e6f6e2d636f6e74726163740000006000830152602082019050919050565b60006116df602a83611a79565b91507f5361666545524332303a204552433230206f7065726174696f6e20646964206e60008301527f6f742073756363656564000000000000000000000000000000000000000000006020830152604082019050919050565b6000611745601f83611a79565b91507f5265656e7472616e637947756172643a207265656e7472616e742063616c6c006000830152602082019050919050565b6000611785601983611a79565b91507f43726f776473616c653a20776569416d6f756e742069732030000000000000006000830152602082019050919050565b6117c181611b8a565b82525050565b60006117d382846114e7565b915081905092915050565b60006020820190506117f360008301846114c9565b92915050565b600060208201905061180e60008301846114ba565b92915050565b600060408201905061182960008301856114c9565b61183660208301846117b8565b9392505050565b600060208201905061185260008301846114d8565b92915050565b600060208201905061186d6000830184611518565b92915050565b6000602082019050818103600083015261188d8184611527565b905092915050565b600060608201905081810360008301526118af8186611527565b90506118be60208301856117b8565b6118cb60408301846114ba565b949350505050565b600060208201905081810360008301526118ec81611560565b9050919050565b6000602082019050818103600083015261190c816115c6565b9050919050565b6000602082019050818103600083015261192c8161162c565b9050919050565b6000602082019050818103600083015261194c81611692565b9050919050565b6000602082019050818103600083015261196c816116d2565b9050919050565b6000602082019050818103600083015261198c81611738565b9050919050565b600060208201905081810360008301526119ac81611778565b9050919050565b60006020820190506119c860008301846117b8565b92915050565b60006040820190506119e360008301856117b8565b6119f060208301846117b8565b9392505050565b6000604051905081810181811067ffffffffffffffff82111715611a1e57611a1d611c29565b5b8060405250919050565b600067ffffffffffffffff821115611a4357611a42611c29565b5b601f19601f8301169050602081019050919050565b600081519050919050565b600081519050919050565b600081905092915050565b600082825260208201905092915050565b6000611a9582611b8a565b9150611aa083611b8a565b9250827fffffffffffffffffffffffffffffffffffffffffffffffffffffffffffffffff03821115611ad557611ad4611bfa565b5b828201905092915050565b6000611aeb82611b8a565b9150611af683611b8a565b9250817fffffffffffffffffffffffffffffffffffffffffffffffffffffffffffffffff0483118215151615611b2f57611b2e611bfa565b5b828202905092915050565b6000611b4582611b6a565b9050919050565b6000611b5782611b6a565b9050919050565b60008115159050919050565b600073ffffffffffffffffffffffffffffffffffffffff82169050919050565b6000819050919050565b6000611b9f82611ba6565b9050919050565b6000611bb182611b6a565b9050919050565b82818337600083830152505050565b60005b83811015611be5578082015181840152602081019050611bca565b83811115611bf4576000848401525b50505050565b7f4e487b7100000000000000000000000000000000000000000000000000000000600052601160045260246000fd5b7f4e487b7100000000000000000000000000000000000000000000000000000000600052604160045260246000fd5b6000601f19601f8301169050919050565b611c7281611b3a565b8114611c7d57600080fd5b50565b611c8981611b4c565b8114611c9457600080fd5b50565b611ca081611b5e565b8114611cab57600080fd5b50565b611cb781611b8a565b8114611cc257600080fd5b5056fea2646970667358221220f0fe675f902219516e3924ee950bc1a879f3b35caf33a48b89d759378eca236e64736f6c63430008000033",
  "immutableReferences": {},
  "source": "pragma solidity ^0.8.0;\n\nimport \"./Crowdsale.sol\";\nimport \"./KYC.sol\";\nimport \"./Voting.sol\";\n\ncontract MyTokenSale is Crowdsale {\n    KYC kyc;\n    Voting vtc;\n    constructor(\n        uint256 rate, // rate in TKNbits\n        address payable wallet,\n        IERC20 token,\n        KYC _kyc,\n        Voting _vtc\n    )\n    Crowdsale(rate, wallet, token) {\n        kyc = _kyc;\n        vtc = _vtc;\n    }\n    function _preValidatePurchase(address beneficiary,uint256 weiAmount) internal override {\n        super._preValidatePurchase(beneficiary, weiAmount);\n        require(kyc.kycCompleted(msg.sender), \"Kyc not completed, purchase not allowed\");\n        vtc.contribute();\n    }\n    //to return total amount of wei collected\n    function totalAmountCollected() public view returns(uint) {\n        return weiRaised();\n    } \n\n    //to check whether KYC is completed or not\n    function isKycVerified(address _address) public view returns(bool) {\n        return kyc.kycCompleted(_address);\n    }\n\n    //for creating a request\n    function makeMoneyRequest(string memory _description, uint _value, address payable _recipient) public {\n        //executing suitable function\n        vtc.createRequest(_description, _value, _recipient);\n    }\n\n    //for accepting the request by investor\n    function voteYes(uint index) public {\n        vtc.approveRequest(index);\n    }\n\n    //for getting the final results\n    function getVoteResult(uint index) public returns(bool){\n        return vtc.finalizeRequest(index);\n    }\n\n    //getting all the request\n    function getRequestDescription(uint index) public view returns(string memory) {\n        return vtc.getRequestDescription(index);\n    }\n    function getRequestValue(uint index) public view returns(uint) {\n        return vtc.getRequestValue(index);\n    }\n    function getRequestRecipient(uint index) public view returns(address payable) {\n        return vtc.getRequestRecipient(index);\n    }\n    function getRequestComplete(uint index) public view returns(bool) {\n        return vtc.getRequestComplete(index);\n    }\n    function getRequestApprovalCount(uint index) public view returns(uint) {\n        return vtc.getRequestApprovalCount(index);\n    }\n}",
  "sourcePath": "/home/ubuntu20/Dev/eth/Github/CryptoTrust/contracts/TokenSale.sol",
  "compiler": {
    "name": "solc",
    "version": "0.8.0+commit.c7dfd78e.Emscripten.clang"
  },
  "schemaVersion": "3.3.4",
  "updatedAt": "2021-06-19T20:38:34.959Z",
  "devdoc": {
    "kind": "dev",
    "methods": {
      "buyTokens(address)": {
        "details": "low level token purchase ***DO NOT OVERRIDE*** This function has a non-reentrancy guard, so it shouldn't be called by another `nonReentrant` function.",
        "params": {
          "beneficiary": "Recipient of the token purchase"
        }
      },
      "rate()": {
        "returns": {
          "_0": "the number of token units a buyer gets per wei."
        }
      },
      "token()": {
        "returns": {
          "_0": "the token being sold."
        }
      },
      "wallet()": {
        "returns": {
          "_0": "the address where funds are collected."
        }
      },
      "weiRaised()": {
        "returns": {
          "_0": "the amount of wei raised."
        }
      }
    },
    "version": 1
  },
  "userdoc": {
    "events": {
      "TokensPurchased(address,address,uint256,uint256)": {
        "notice": "Event for token purchase logging"
      }
    },
    "kind": "user",
    "methods": {},
    "version": 1
  }
}