{
  "contractName": "MyTokenSale",
  "abi": [
    {
      "inputs": [
        {
          "internalType": "uint256",
          "name": "rate",
          "type": "uint256"
        },
        {
          "internalType": "address payable",
          "name": "wallet",
          "type": "address"
        },
        {
          "internalType": "contract IERC20",
          "name": "token",
          "type": "address"
        },
        {
          "internalType": "contract KYC",
          "name": "_kyc",
          "type": "address"
        }
      ],
      "stateMutability": "nonpayable",
      "type": "constructor"
    },
    {
      "anonymous": false,
      "inputs": [
        {
          "indexed": true,
          "internalType": "address",
          "name": "purchaser",
          "type": "address"
        },
        {
          "indexed": true,
          "internalType": "address",
          "name": "beneficiary",
          "type": "address"
        },
        {
          "indexed": false,
          "internalType": "uint256",
          "name": "value",
          "type": "uint256"
        },
        {
          "indexed": false,
          "internalType": "uint256",
          "name": "amount",
          "type": "uint256"
        }
      ],
      "name": "TokensPurchased",
      "type": "event"
    },
    {
      "inputs": [
        {
          "internalType": "address",
          "name": "beneficiary",
          "type": "address"
        }
      ],
      "name": "buyTokens",
      "outputs": [],
      "stateMutability": "payable",
      "type": "function"
    },
    {
      "inputs": [],
      "name": "rate",
      "outputs": [
        {
          "internalType": "uint256",
          "name": "",
          "type": "uint256"
        }
      ],
      "stateMutability": "view",
      "type": "function"
    },
    {
      "inputs": [],
      "name": "token",
      "outputs": [
        {
          "internalType": "contract IERC20",
          "name": "",
          "type": "address"
        }
      ],
      "stateMutability": "view",
      "type": "function"
    },
    {
      "inputs": [],
      "name": "wallet",
      "outputs": [
        {
          "internalType": "address payable",
          "name": "",
          "type": "address"
        }
      ],
      "stateMutability": "view",
      "type": "function"
    },
    {
      "inputs": [],
      "name": "weiRaised",
      "outputs": [
        {
          "internalType": "uint256",
          "name": "",
          "type": "uint256"
        }
      ],
      "stateMutability": "view",
      "type": "function"
    },
    {
      "stateMutability": "payable",
      "type": "receive"
    },
    {
      "inputs": [],
      "name": "totalAmountCollected",
      "outputs": [
        {
          "internalType": "uint256",
          "name": "",
          "type": "uint256"
        }
      ],
      "stateMutability": "view",
      "type": "function"
    }
  ],
  "bytecode": "0x60806040523480156200001157600080fd5b50604051620015dc380380620015dc8339818101604052810190620000379190620002a1565b83838360016000819055506000831162000088576040517f08c379a00000000000000000000000000000000000000000000000000000000081526004016200007f9062000441565b60405180910390fd5b600073ffffffffffffffffffffffffffffffffffffffff168273ffffffffffffffffffffffffffffffffffffffff161415620000fb576040517f08c379a0000000000000000000000000000000000000000000000000000000008152600401620000f29062000463565b60405180910390fd5b600073ffffffffffffffffffffffffffffffffffffffff168173ffffffffffffffffffffffffffffffffffffffff1614156200016e576040517f08c379a000000000000000000000000000000000000000000000000000000000815260040162000165906200041f565b60405180910390fd5b8260038190555081600260006101000a81548173ffffffffffffffffffffffffffffffffffffffff021916908373ffffffffffffffffffffffffffffffffffffffff16021790555080600160006101000a81548173ffffffffffffffffffffffffffffffffffffffff021916908373ffffffffffffffffffffffffffffffffffffffff16021790555050505080600560006101000a81548173ffffffffffffffffffffffffffffffffffffffff021916908373ffffffffffffffffffffffffffffffffffffffff1602179055505050505062000578565b600081519050620002568162000510565b92915050565b6000815190506200026d816200052a565b92915050565b600081519050620002848162000544565b92915050565b6000815190506200029b816200055e565b92915050565b60008060008060808587031215620002b857600080fd5b6000620002c8878288016200028a565b9450506020620002db8782880162000245565b9350506040620002ee878288016200025c565b9250506060620003018782880162000273565b91505092959194509250565b60006200031c60248362000485565b91507f43726f776473616c653a20746f6b656e20697320746865207a65726f2061646460008301527f72657373000000000000000000000000000000000000000000000000000000006020830152604082019050919050565b60006200038460148362000485565b91507f43726f776473616c653a207261746520697320300000000000000000000000006000830152602082019050919050565b6000620003c660258362000485565b91507f43726f776473616c653a2077616c6c657420697320746865207a65726f20616460008301527f64726573730000000000000000000000000000000000000000000000000000006020830152604082019050919050565b600060208201905081810360008301526200043a816200030d565b9050919050565b600060208201905081810360008301526200045c8162000375565b9050919050565b600060208201905081810360008301526200047e81620003b7565b9050919050565b600082825260208201905092915050565b6000620004a382620004e6565b9050919050565b6000620004b782620004e6565b9050919050565b6000620004cb8262000496565b9050919050565b6000620004df8262000496565b9050919050565b600073ffffffffffffffffffffffffffffffffffffffff82169050919050565b6000819050919050565b6200051b81620004aa565b81146200052757600080fd5b50565b6200053581620004be565b81146200054157600080fd5b50565b6200054f81620004d2565b81146200055b57600080fd5b50565b620005698162000506565b81146200057557600080fd5b50565b61105480620005886000396000f3fe6080604052600436106100595760003560e01c80632c4e722e146100755780634042b66f146100a0578063521eb273146100cb578063c236bb22146100f6578063ec8ac4d814610121578063fc0c546a1461013d57610070565b366100705761006e610069610168565b610170565b005b600080fd5b34801561008157600080fd5b5061008a610296565b6040516100979190610dd9565b60405180910390f35b3480156100ac57600080fd5b506100b56102a0565b6040516100c29190610dd9565b60405180910390f35b3480156100d757600080fd5b506100e06102aa565b6040516100ed9190610c78565b60405180910390f35b34801561010257600080fd5b5061010b6102d4565b6040516101189190610dd9565b60405180910390f35b61013b600480360381019061013691906108f6565b610170565b005b34801561014957600080fd5b506101526102e3565b60405161015f9190610cbc565b60405180910390f35b600033905090565b600260005414156101b6576040517f08c379a00000000000000000000000000000000000000000000000000000000081526004016101ad90610d99565b60405180910390fd5b600260008190555060003490506101cd828261030d565b60006101d882610405565b90506101ef8260045461042390919063ffffffff16565b6004819055506101ff8382610439565b8273ffffffffffffffffffffffffffffffffffffffff1661021e610168565b73ffffffffffffffffffffffffffffffffffffffff167f6faf93231a456e552dbc9961f58d9713ee4f2e69d15f1975b050ef0911053a7b8484604051610265929190610df4565b60405180910390a36102778383610447565b61027f61044b565b61028983836104b6565b5050600160008190555050565b6000600354905090565b6000600454905090565b6000600260009054906101000a900473ffffffffffffffffffffffffffffffffffffffff16905090565b60006102de6102a0565b905090565b6000600160009054906101000a900473ffffffffffffffffffffffffffffffffffffffff16905090565b61031782826104ba565b600560009054906101000a900473ffffffffffffffffffffffffffffffffffffffff1673ffffffffffffffffffffffffffffffffffffffff1663df235fe4336040518263ffffffff1660e01b81526004016103729190610c5d565b60206040518083038186803b15801561038a57600080fd5b505afa15801561039e573d6000803e3d6000fd5b505050506040513d601f19601f820116820180604052508101906103c2919061091f565b610401576040517f08c379a00000000000000000000000000000000000000000000000000000000081526004016103f890610cf9565b60405180910390fd5b5050565b600061041c6003548361057290919063ffffffff16565b9050919050565b600081836104319190610e4f565b905092915050565b6104438282610588565b5050565b5050565b600260009054906101000a900473ffffffffffffffffffffffffffffffffffffffff1673ffffffffffffffffffffffffffffffffffffffff166108fc349081150290604051600060405180830381858888f193505050501580156104b3573d6000803e3d6000fd5b50565b5050565b600073ffffffffffffffffffffffffffffffffffffffff168273ffffffffffffffffffffffffffffffffffffffff16141561052a576040517f08c379a000000000000000000000000000000000000000000000000000000000815260040161052190610d39565b60405180910390fd5b600081141561056e576040517f08c379a000000000000000000000000000000000000000000000000000000000815260040161056590610db9565b60405180910390fd5b5050565b600081836105809190610ea5565b905092915050565b6105d58282600160009054906101000a900473ffffffffffffffffffffffffffffffffffffffff1673ffffffffffffffffffffffffffffffffffffffff166105d99092919063ffffffff16565b5050565b61065a8363a9059cbb60e01b84846040516024016105f8929190610c93565b604051602081830303815290604052907bffffffffffffffffffffffffffffffffffffffffffffffffffffffff19166020820180517bffffffffffffffffffffffffffffffffffffffffffffffffffffffff838183161783525050505061065f565b505050565b60006106c1826040518060400160405280602081526020017f5361666545524332303a206c6f772d6c6576656c2063616c6c206661696c65648152508573ffffffffffffffffffffffffffffffffffffffff166107269092919063ffffffff16565b905060008151111561072157808060200190518101906106e1919061091f565b610720576040517f08c379a000000000000000000000000000000000000000000000000000000000815260040161071790610d79565b60405180910390fd5b5b505050565b6060610735848460008561073e565b90509392505050565b606082471015610783576040517f08c379a000000000000000000000000000000000000000000000000000000000815260040161077a90610d19565b60405180910390fd5b61078c85610852565b6107cb576040517f08c379a00000000000000000000000000000000000000000000000000000000081526004016107c290610d59565b60405180910390fd5b6000808673ffffffffffffffffffffffffffffffffffffffff1685876040516107f49190610c46565b60006040518083038185875af1925050503d8060008114610831576040519150601f19603f3d011682016040523d82523d6000602084013e610836565b606091505b5091509150610846828286610865565b92505050949350505050565b600080823b905060008111915050919050565b60608315610875578290506108c5565b6000835111156108885782518084602001fd5b816040517f08c379a00000000000000000000000000000000000000000000000000000000081526004016108bc9190610cd7565b60405180910390fd5b9392505050565b6000813590506108db81610ff0565b92915050565b6000815190506108f081611007565b92915050565b60006020828403121561090857600080fd5b6000610916848285016108cc565b91505092915050565b60006020828403121561093157600080fd5b600061093f848285016108e1565b91505092915050565b61095181610f11565b82525050565b61096081610eff565b82525050565b600061097182610e1d565b61097b8185610e33565b935061098b818560208601610f7d565b80840191505092915050565b6109a081610f59565b82525050565b60006109b182610e28565b6109bb8185610e3e565b93506109cb818560208601610f7d565b6109d481610fdf565b840191505092915050565b60006109ec602783610e3e565b91507f4b7963206e6f7420636f6d706c657465642c207075726368617365206e6f742060008301527f616c6c6f776564000000000000000000000000000000000000000000000000006020830152604082019050919050565b6000610a52602683610e3e565b91507f416464726573733a20696e73756666696369656e742062616c616e636520666f60008301527f722063616c6c00000000000000000000000000000000000000000000000000006020830152604082019050919050565b6000610ab8602a83610e3e565b91507f43726f776473616c653a2062656e656669636961727920697320746865207a6560008301527f726f2061646472657373000000000000000000000000000000000000000000006020830152604082019050919050565b6000610b1e601d83610e3e565b91507f416464726573733a2063616c6c20746f206e6f6e2d636f6e74726163740000006000830152602082019050919050565b6000610b5e602a83610e3e565b91507f5361666545524332303a204552433230206f7065726174696f6e20646964206e60008301527f6f742073756363656564000000000000000000000000000000000000000000006020830152604082019050919050565b6000610bc4601f83610e3e565b91507f5265656e7472616e637947756172643a207265656e7472616e742063616c6c006000830152602082019050919050565b6000610c04601983610e3e565b91507f43726f776473616c653a20776569416d6f756e742069732030000000000000006000830152602082019050919050565b610c4081610f4f565b82525050565b6000610c528284610966565b915081905092915050565b6000602082019050610c726000830184610957565b92915050565b6000602082019050610c8d6000830184610948565b92915050565b6000604082019050610ca86000830185610957565b610cb56020830184610c37565b9392505050565b6000602082019050610cd16000830184610997565b92915050565b60006020820190508181036000830152610cf181846109a6565b905092915050565b60006020820190508181036000830152610d12816109df565b9050919050565b60006020820190508181036000830152610d3281610a45565b9050919050565b60006020820190508181036000830152610d5281610aab565b9050919050565b60006020820190508181036000830152610d7281610b11565b9050919050565b60006020820190508181036000830152610d9281610b51565b9050919050565b60006020820190508181036000830152610db281610bb7565b9050919050565b60006020820190508181036000830152610dd281610bf7565b9050919050565b6000602082019050610dee6000830184610c37565b92915050565b6000604082019050610e096000830185610c37565b610e166020830184610c37565b9392505050565b600081519050919050565b600081519050919050565b600081905092915050565b600082825260208201905092915050565b6000610e5a82610f4f565b9150610e6583610f4f565b9250827fffffffffffffffffffffffffffffffffffffffffffffffffffffffffffffffff03821115610e9a57610e99610fb0565b5b828201905092915050565b6000610eb082610f4f565b9150610ebb83610f4f565b9250817fffffffffffffffffffffffffffffffffffffffffffffffffffffffffffffffff0483118215151615610ef457610ef3610fb0565b5b828202905092915050565b6000610f0a82610f2f565b9050919050565b6000610f1c82610f2f565b9050919050565b60008115159050919050565b600073ffffffffffffffffffffffffffffffffffffffff82169050919050565b6000819050919050565b6000610f6482610f6b565b9050919050565b6000610f7682610f2f565b9050919050565b60005b83811015610f9b578082015181840152602081019050610f80565b83811115610faa576000848401525b50505050565b7f4e487b7100000000000000000000000000000000000000000000000000000000600052601160045260246000fd5b6000601f19601f8301169050919050565b610ff981610eff565b811461100457600080fd5b50565b61101081610f23565b811461101b57600080fd5b5056fea264697066735822122026cc5c582b80119e16ff452b8d4d697d20fe5072393e0416df6bcdb9271144b064736f6c63430008000033",
  "immutableReferences": {},
  "source": "pragma solidity ^0.8.0;\n\nimport \"./Crowdsale.sol\";\nimport \"./KYC.sol\";\n\ncontract MyTokenSale is Crowdsale {\n    KYC kyc;\n    constructor(\n        uint256 rate, // rate in TKNbits\n        address payable wallet,\n        IERC20 token,\n        KYC _kyc\n    )\n    Crowdsale(rate, wallet, token) {\n        kyc = _kyc;\n    }\n    function _preValidatePurchase(address beneficiary,uint256 weiAmount) internal view override {\n        super._preValidatePurchase(beneficiary, weiAmount);\n        require(kyc.kycCompleted(msg.sender), \"Kyc not completed, purchase not allowed\");\n    }\n    //to return total amount of wei collected\n    function totalAmountCollected() public view returns(uint) {\n        return weiRaised();\n    } \n}",
  "sourcePath": "/home/ubuntu20/Dev/eth/Github/CryptoTrust/contracts/TokenSale.sol",
  "compiler": {
    "name": "solc",
    "version": "0.8.0+commit.c7dfd78e.Emscripten.clang"
  },
  "schemaVersion": "3.3.4",
  "updatedAt": "2021-06-17T18:49:08.425Z",
  "devdoc": {
    "kind": "dev",
    "methods": {
      "buyTokens(address)": {
        "details": "low level token purchase ***DO NOT OVERRIDE*** This function has a non-reentrancy guard, so it shouldn't be called by another `nonReentrant` function.",
        "params": {
          "beneficiary": "Recipient of the token purchase"
        }
      },
      "rate()": {
        "returns": {
          "_0": "the number of token units a buyer gets per wei."
        }
      },
      "token()": {
        "returns": {
          "_0": "the token being sold."
        }
      },
      "wallet()": {
        "returns": {
          "_0": "the address where funds are collected."
        }
      },
      "weiRaised()": {
        "returns": {
          "_0": "the amount of wei raised."
        }
      }
    },
    "version": 1
  },
  "userdoc": {
    "events": {
      "TokensPurchased(address,address,uint256,uint256)": {
        "notice": "Event for token purchase logging"
      }
    },
    "kind": "user",
    "methods": {},
    "version": 1
  }
}