{
  "contractName": "TokenSale",
  "abi": [
    {
      "inputs": [
        {
          "internalType": "uint256",
          "name": "rate",
          "type": "uint256"
        },
        {
          "internalType": "address payable",
          "name": "wallet",
          "type": "address"
        },
        {
          "internalType": "contract IERC20",
          "name": "token",
          "type": "address"
        },
        {
          "internalType": "contract KYC",
          "name": "_kyc",
          "type": "address"
        },
        {
          "internalType": "contract Voting",
          "name": "_vtc",
          "type": "address"
        }
      ],
      "stateMutability": "nonpayable",
      "type": "constructor"
    },
    {
      "anonymous": false,
      "inputs": [
        {
          "indexed": true,
          "internalType": "address",
          "name": "purchaser",
          "type": "address"
        },
        {
          "indexed": true,
          "internalType": "address",
          "name": "beneficiary",
          "type": "address"
        },
        {
          "indexed": false,
          "internalType": "uint256",
          "name": "value",
          "type": "uint256"
        },
        {
          "indexed": false,
          "internalType": "uint256",
          "name": "amount",
          "type": "uint256"
        }
      ],
      "name": "TokensPurchased",
      "type": "event"
    },
    {
      "inputs": [
        {
          "internalType": "address",
          "name": "beneficiary",
          "type": "address"
        }
      ],
      "name": "buyTokens",
      "outputs": [],
      "stateMutability": "payable",
      "type": "function"
    },
    {
      "inputs": [],
      "name": "rate",
      "outputs": [
        {
          "internalType": "uint256",
          "name": "",
          "type": "uint256"
        }
      ],
      "stateMutability": "view",
      "type": "function"
    },
    {
      "inputs": [],
      "name": "token",
      "outputs": [
        {
          "internalType": "contract IERC20",
          "name": "",
          "type": "address"
        }
      ],
      "stateMutability": "view",
      "type": "function"
    },
    {
      "inputs": [],
      "name": "wallet",
      "outputs": [
        {
          "internalType": "address payable",
          "name": "",
          "type": "address"
        }
      ],
      "stateMutability": "view",
      "type": "function"
    },
    {
      "inputs": [],
      "name": "weiRaised",
      "outputs": [
        {
          "internalType": "uint256",
          "name": "",
          "type": "uint256"
        }
      ],
      "stateMutability": "view",
      "type": "function"
    },
    {
      "stateMutability": "payable",
      "type": "receive"
    },
    {
      "inputs": [],
      "name": "totalAmountCollected",
      "outputs": [
        {
          "internalType": "uint256",
          "name": "",
          "type": "uint256"
        }
      ],
      "stateMutability": "view",
      "type": "function"
    },
    {
      "inputs": [],
      "name": "balanceOfContract",
      "outputs": [
        {
          "internalType": "uint256",
          "name": "",
          "type": "uint256"
        }
      ],
      "stateMutability": "view",
      "type": "function"
    },
    {
      "inputs": [
        {
          "internalType": "address",
          "name": "_address",
          "type": "address"
        }
      ],
      "name": "isKycVerified",
      "outputs": [
        {
          "internalType": "bool",
          "name": "",
          "type": "bool"
        }
      ],
      "stateMutability": "view",
      "type": "function"
    },
    {
      "inputs": [
        {
          "internalType": "string",
          "name": "_description",
          "type": "string"
        },
        {
          "internalType": "uint256",
          "name": "_value",
          "type": "uint256"
        },
        {
          "internalType": "address payable",
          "name": "_recipient",
          "type": "address"
        }
      ],
      "name": "makeMoneyRequest",
      "outputs": [],
      "stateMutability": "nonpayable",
      "type": "function"
    },
    {
      "inputs": [
        {
          "internalType": "uint256",
          "name": "index",
          "type": "uint256"
        }
      ],
      "name": "voteYes",
      "outputs": [],
      "stateMutability": "nonpayable",
      "type": "function"
    },
    {
      "inputs": [
        {
          "internalType": "uint256",
          "name": "index",
          "type": "uint256"
        }
      ],
      "name": "getVoteResult",
      "outputs": [
        {
          "internalType": "bool",
          "name": "",
          "type": "bool"
        }
      ],
      "stateMutability": "nonpayable",
      "type": "function"
    },
    {
      "inputs": [
        {
          "internalType": "uint256",
          "name": "index",
          "type": "uint256"
        }
      ],
      "name": "getRequestDescription",
      "outputs": [
        {
          "internalType": "string",
          "name": "",
          "type": "string"
        }
      ],
      "stateMutability": "view",
      "type": "function"
    },
    {
      "inputs": [
        {
          "internalType": "uint256",
          "name": "index",
          "type": "uint256"
        }
      ],
      "name": "getRequestValue",
      "outputs": [
        {
          "internalType": "uint256",
          "name": "",
          "type": "uint256"
        }
      ],
      "stateMutability": "view",
      "type": "function"
    },
    {
      "inputs": [
        {
          "internalType": "uint256",
          "name": "index",
          "type": "uint256"
        }
      ],
      "name": "getRequestRecipient",
      "outputs": [
        {
          "internalType": "address payable",
          "name": "",
          "type": "address"
        }
      ],
      "stateMutability": "view",
      "type": "function"
    },
    {
      "inputs": [
        {
          "internalType": "uint256",
          "name": "index",
          "type": "uint256"
        }
      ],
      "name": "getRequestComplete",
      "outputs": [
        {
          "internalType": "bool",
          "name": "",
          "type": "bool"
        }
      ],
      "stateMutability": "view",
      "type": "function"
    },
    {
      "inputs": [
        {
          "internalType": "uint256",
          "name": "index",
          "type": "uint256"
        }
      ],
      "name": "getRequestApprovalCount",
      "outputs": [
        {
          "internalType": "uint256",
          "name": "",
          "type": "uint256"
        }
      ],
      "stateMutability": "view",
      "type": "function"
    },
    {
      "inputs": [
        {
          "internalType": "address",
          "name": "_address",
          "type": "address"
        }
      ],
      "name": "makeKycRequest",
      "outputs": [],
      "stateMutability": "nonpayable",
      "type": "function"
    }
  ],
  "bytecode": "0x60806040523480156200001157600080fd5b506040516200242d3803806200242d8339818101604052810190620000379190620002fa565b84308460016000819055506000831162000088576040517f08c379a00000000000000000000000000000000000000000000000000000000081526004016200007f90620004b0565b60405180910390fd5b600073ffffffffffffffffffffffffffffffffffffffff168273ffffffffffffffffffffffffffffffffffffffff161415620000fb576040517f08c379a0000000000000000000000000000000000000000000000000000000008152600401620000f290620004d2565b60405180910390fd5b600073ffffffffffffffffffffffffffffffffffffffff168173ffffffffffffffffffffffffffffffffffffffff1614156200016e576040517f08c379a000000000000000000000000000000000000000000000000000000000815260040162000165906200048e565b60405180910390fd5b8260038190555081600260006101000a81548173ffffffffffffffffffffffffffffffffffffffff021916908373ffffffffffffffffffffffffffffffffffffffff16021790555080600160006101000a81548173ffffffffffffffffffffffffffffffffffffffff021916908373ffffffffffffffffffffffffffffffffffffffff16021790555050505081600560006101000a81548173ffffffffffffffffffffffffffffffffffffffff021916908373ffffffffffffffffffffffffffffffffffffffff16021790555080600660006101000a81548173ffffffffffffffffffffffffffffffffffffffff021916908373ffffffffffffffffffffffffffffffffffffffff160217905550505050505062000615565b600081519050620002988162000593565b92915050565b600081519050620002af81620005ad565b92915050565b600081519050620002c681620005c7565b92915050565b600081519050620002dd81620005e1565b92915050565b600081519050620002f481620005fb565b92915050565b600080600080600060a086880312156200031357600080fd5b60006200032388828901620002e3565b9550506020620003368882890162000287565b945050604062000349888289016200029e565b93505060606200035c88828901620002b5565b92505060806200036f88828901620002cc565b9150509295509295909350565b60006200038b602483620004f4565b91507f43726f776473616c653a20746f6b656e20697320746865207a65726f2061646460008301527f72657373000000000000000000000000000000000000000000000000000000006020830152604082019050919050565b6000620003f3601483620004f4565b91507f43726f776473616c653a207261746520697320300000000000000000000000006000830152602082019050919050565b600062000435602583620004f4565b91507f43726f776473616c653a2077616c6c657420697320746865207a65726f20616460008301527f64726573730000000000000000000000000000000000000000000000000000006020830152604082019050919050565b60006020820190508181036000830152620004a9816200037c565b9050919050565b60006020820190508181036000830152620004cb81620003e4565b9050919050565b60006020820190508181036000830152620004ed8162000426565b9050919050565b600082825260208201905092915050565b6000620005128262000569565b9050919050565b6000620005268262000569565b9050919050565b60006200053a8262000505565b9050919050565b60006200054e8262000505565b9050919050565b6000620005628262000505565b9050919050565b600073ffffffffffffffffffffffffffffffffffffffff82169050919050565b6000819050919050565b6200059e8162000519565b8114620005aa57600080fd5b50565b620005b8816200052d565b8114620005c457600080fd5b50565b620005d28162000541565b8114620005de57600080fd5b50565b620005ec8162000555565b8114620005f857600080fd5b50565b620006068162000589565b81146200061257600080fd5b50565b611e0880620006256000396000f3fe6080604052600436106101025760003560e01c8063abd9153311610095578063c236bb2211610064578063c236bb2214610388578063c2eb0a3a146103b3578063e6c7c456146103f0578063ec8ac4d81461041b578063fc0c546a1461043757610119565b8063abd91533146102a8578063acbd857f146102d1578063acf99d9d1461030e578063bfa0fc931461034b57610119565b8063521eb273116100d1578063521eb273146101da5780635b8575a9146102055780636a1cf721146102425780636ddfaed11461026b57610119565b806309ff54b01461011e5780632c4e722e146101475780634042b66f14610172578063519198ca1461019d57610119565b3661011957610117610112610462565b61046a565b005b600080fd5b34801561012a57600080fd5b506101456004803603810190610140919061150e565b610590565b005b34801561015357600080fd5b5061015c610626565b6040516101699190611ac0565b60405180910390f35b34801561017e57600080fd5b50610187610630565b6040516101949190611ac0565b60405180910390f35b3480156101a957600080fd5b506101c460048036038101906101bf9190611575565b61063a565b6040516101d19190611ac0565b60405180910390f35b3480156101e657600080fd5b506101ef6106ee565b6040516101fc9190611906565b60405180910390f35b34801561021157600080fd5b5061022c60048036038101906102279190611575565b610718565b6040516102399190611906565b60405180910390f35b34801561024e57600080fd5b5061026960048036038101906102649190611575565b6107cc565b005b34801561027757600080fd5b50610292600480360381019061028d9190611575565b61085c565b60405161029f9190611980565b60405180910390f35b3480156102b457600080fd5b506102cf60048036038101906102ca9190611452565b610915565b005b3480156102dd57600080fd5b506102f860048036038101906102f39190611452565b6109a5565b604051610305919061194a565b60405180910390f35b34801561031a57600080fd5b5061033560048036038101906103309190611575565b610a59565b604051610342919061194a565b60405180910390f35b34801561035757600080fd5b50610372600480360381019061036d9190611575565b610b0d565b60405161037f919061194a565b60405180910390f35b34801561039457600080fd5b5061039d610bc3565b6040516103aa9190611ac0565b60405180910390f35b3480156103bf57600080fd5b506103da60048036038101906103d59190611575565b610bd2565b6040516103e79190611ac0565b60405180910390f35b3480156103fc57600080fd5b50610405610c86565b6040516104129190611ac0565b60405180910390f35b61043560048036038101906104309190611452565b61046a565b005b34801561044357600080fd5b5061044c610c8e565b6040516104599190611965565b60405180910390f35b600033905090565b600260005414156104b0576040517f08c379a00000000000000000000000000000000000000000000000000000000081526004016104a790611a80565b60405180910390fd5b600260008190555060003490506104c78282610cb8565b60006104d282610e3d565b90506104e982600454610e5b90919063ffffffff16565b6004819055506104f98382610e71565b8273ffffffffffffffffffffffffffffffffffffffff16610518610462565b73ffffffffffffffffffffffffffffffffffffffff167f6faf93231a456e552dbc9961f58d9713ee4f2e69d15f1975b050ef0911053a7b848460405161055f929190611adb565b60405180910390a36105718383610e7f565b610579610e83565b6105838383610eee565b5050600160008190555050565b600660009054906101000a900473ffffffffffffffffffffffffffffffffffffffff1673ffffffffffffffffffffffffffffffffffffffff16638a9cfd558484846040518463ffffffff1660e01b81526004016105ef939291906119a2565b600060405180830381600087803b15801561060957600080fd5b505af115801561061d573d6000803e3d6000fd5b50505050505050565b6000600354905090565b6000600454905090565b6000600660009054906101000a900473ffffffffffffffffffffffffffffffffffffffff1673ffffffffffffffffffffffffffffffffffffffff1663519198ca836040518263ffffffff1660e01b81526004016106979190611ac0565b60206040518083038186803b1580156106af57600080fd5b505afa1580156106c3573d6000803e3d6000fd5b505050506040513d601f19601f820116820180604052508101906106e7919061159e565b9050919050565b6000600260009054906101000a900473ffffffffffffffffffffffffffffffffffffffff16905090565b6000600660009054906101000a900473ffffffffffffffffffffffffffffffffffffffff1673ffffffffffffffffffffffffffffffffffffffff16635b8575a9836040518263ffffffff1660e01b81526004016107759190611ac0565b60206040518083038186803b15801561078d57600080fd5b505afa1580156107a1573d6000803e3d6000fd5b505050506040513d601f19601f820116820180604052508101906107c5919061147b565b9050919050565b600660009054906101000a900473ffffffffffffffffffffffffffffffffffffffff1673ffffffffffffffffffffffffffffffffffffffff1663d7d1bbdb826040518263ffffffff1660e01b81526004016108279190611ac0565b600060405180830381600087803b15801561084157600080fd5b505af1158015610855573d6000803e3d6000fd5b5050505050565b6060600660009054906101000a900473ffffffffffffffffffffffffffffffffffffffff1673ffffffffffffffffffffffffffffffffffffffff16636ddfaed1836040518263ffffffff1660e01b81526004016108b99190611ac0565b60006040518083038186803b1580156108d157600080fd5b505afa1580156108e5573d6000803e3d6000fd5b505050506040513d6000823e3d601f19601f8201168201806040525081019061090e91906114cd565b9050919050565b600560009054906101000a900473ffffffffffffffffffffffffffffffffffffffff1673ffffffffffffffffffffffffffffffffffffffff166388b94044826040518263ffffffff1660e01b815260040161097091906118eb565b600060405180830381600087803b15801561098a57600080fd5b505af115801561099e573d6000803e3d6000fd5b5050505050565b6000600560009054906101000a900473ffffffffffffffffffffffffffffffffffffffff1673ffffffffffffffffffffffffffffffffffffffff1663df235fe4836040518263ffffffff1660e01b8152600401610a0291906118eb565b60206040518083038186803b158015610a1a57600080fd5b505afa158015610a2e573d6000803e3d6000fd5b505050506040513d601f19601f82011682018060405250810190610a5291906114a4565b9050919050565b6000600660009054906101000a900473ffffffffffffffffffffffffffffffffffffffff1673ffffffffffffffffffffffffffffffffffffffff1663acf99d9d836040518263ffffffff1660e01b8152600401610ab69190611ac0565b60206040518083038186803b158015610ace57600080fd5b505afa158015610ae2573d6000803e3d6000fd5b505050506040513d601f19601f82011682018060405250810190610b0691906114a4565b9050919050565b6000600660009054906101000a900473ffffffffffffffffffffffffffffffffffffffff1673ffffffffffffffffffffffffffffffffffffffff166303441006836040518263ffffffff1660e01b8152600401610b6a9190611ac0565b602060405180830381600087803b158015610b8457600080fd5b505af1158015610b98573d6000803e3d6000fd5b505050506040513d601f19601f82011682018060405250810190610bbc91906114a4565b9050919050565b6000610bcd610630565b905090565b6000600660009054906101000a900473ffffffffffffffffffffffffffffffffffffffff1673ffffffffffffffffffffffffffffffffffffffff1663c2eb0a3a836040518263ffffffff1660e01b8152600401610c2f9190611ac0565b60206040518083038186803b158015610c4757600080fd5b505afa158015610c5b573d6000803e3d6000fd5b505050506040513d601f19601f82011682018060405250810190610c7f919061159e565b9050919050565b600047905090565b6000600160009054906101000a900473ffffffffffffffffffffffffffffffffffffffff16905090565b610cc28282610ef2565b600560009054906101000a900473ffffffffffffffffffffffffffffffffffffffff1673ffffffffffffffffffffffffffffffffffffffff1663df235fe4336040518263ffffffff1660e01b8152600401610d1d91906118eb565b60206040518083038186803b158015610d3557600080fd5b505afa158015610d49573d6000803e3d6000fd5b505050506040513d601f19601f82011682018060405250810190610d6d91906114a4565b610dac576040517f08c379a0000000000000000000000000000000000000000000000000000000008152600401610da3906119e0565b60405180910390fd5b600660009054906101000a900473ffffffffffffffffffffffffffffffffffffffff1673ffffffffffffffffffffffffffffffffffffffff166373e888fd336040518263ffffffff1660e01b8152600401610e0791906118eb565b600060405180830381600087803b158015610e2157600080fd5b505af1158015610e35573d6000803e3d6000fd5b505050505050565b6000610e5460035483610faa90919063ffffffff16565b9050919050565b60008183610e699190611b97565b905092915050565b610e7b8282610fc0565b5050565b5050565b600260009054906101000a900473ffffffffffffffffffffffffffffffffffffffff1673ffffffffffffffffffffffffffffffffffffffff166108fc349081150290604051600060405180830381858888f19350505050158015610eeb573d6000803e3d6000fd5b50565b5050565b600073ffffffffffffffffffffffffffffffffffffffff168273ffffffffffffffffffffffffffffffffffffffff161415610f62576040517f08c379a0000000000000000000000000000000000000000000000000000000008152600401610f5990611a20565b60405180910390fd5b6000811415610fa6576040517f08c379a0000000000000000000000000000000000000000000000000000000008152600401610f9d90611aa0565b60405180910390fd5b5050565b60008183610fb89190611bed565b905092915050565b61100d8282600160009054906101000a900473ffffffffffffffffffffffffffffffffffffffff1673ffffffffffffffffffffffffffffffffffffffff166110119092919063ffffffff16565b5050565b6110928363a9059cbb60e01b8484604051602401611030929190611921565b604051602081830303815290604052907bffffffffffffffffffffffffffffffffffffffffffffffffffffffff19166020820180517bffffffffffffffffffffffffffffffffffffffffffffffffffffffff8381831617835250505050611097565b505050565b60006110f9826040518060400160405280602081526020017f5361666545524332303a206c6f772d6c6576656c2063616c6c206661696c65648152508573ffffffffffffffffffffffffffffffffffffffff1661115e9092919063ffffffff16565b9050600081511115611159578080602001905181019061111991906114a4565b611158576040517f08c379a000000000000000000000000000000000000000000000000000000000815260040161114f90611a60565b60405180910390fd5b5b505050565b606061116d8484600085611176565b90509392505050565b6060824710156111bb576040517f08c379a00000000000000000000000000000000000000000000000000000000081526004016111b290611a00565b60405180910390fd5b6111c48561128a565b611203576040517f08c379a00000000000000000000000000000000000000000000000000000000081526004016111fa90611a40565b60405180910390fd5b6000808673ffffffffffffffffffffffffffffffffffffffff16858760405161122c91906118d4565b60006040518083038185875af1925050503d8060008114611269576040519150601f19603f3d011682016040523d82523d6000602084013e61126e565b606091505b509150915061127e82828661129d565b92505050949350505050565b600080823b905060008111915050919050565b606083156112ad578290506112fd565b6000835111156112c05782518084602001fd5b816040517f08c379a00000000000000000000000000000000000000000000000000000000081526004016112f49190611980565b60405180910390fd5b9392505050565b600061131761131284611b35565b611b04565b90508281526020810184848401111561132f57600080fd5b61133a848285611cc5565b509392505050565b600061135561135084611b35565b611b04565b90508281526020810184848401111561136d57600080fd5b611378848285611cd4565b509392505050565b60008135905061138f81611d76565b92915050565b6000813590506113a481611d8d565b92915050565b6000815190506113b981611d8d565b92915050565b6000815190506113ce81611da4565b92915050565b600082601f8301126113e557600080fd5b81356113f5848260208601611304565b91505092915050565b600082601f83011261140f57600080fd5b815161141f848260208601611342565b91505092915050565b60008135905061143781611dbb565b92915050565b60008151905061144c81611dbb565b92915050565b60006020828403121561146457600080fd5b600061147284828501611380565b91505092915050565b60006020828403121561148d57600080fd5b600061149b848285016113aa565b91505092915050565b6000602082840312156114b657600080fd5b60006114c4848285016113bf565b91505092915050565b6000602082840312156114df57600080fd5b600082015167ffffffffffffffff8111156114f957600080fd5b611505848285016113fe565b91505092915050565b60008060006060848603121561152357600080fd5b600084013567ffffffffffffffff81111561153d57600080fd5b611549868287016113d4565b935050602061155a86828701611428565b925050604061156b86828701611395565b9150509250925092565b60006020828403121561158757600080fd5b600061159584828501611428565b91505092915050565b6000602082840312156115b057600080fd5b60006115be8482850161143d565b91505092915050565b6115d081611c59565b82525050565b6115df81611c47565b82525050565b6115ee81611c6b565b82525050565b60006115ff82611b65565b6116098185611b7b565b9350611619818560208601611cd4565b80840191505092915050565b61162e81611ca1565b82525050565b600061163f82611b70565b6116498185611b86565b9350611659818560208601611cd4565b61166281611d65565b840191505092915050565b600061167a602783611b86565b91507f4b7963206e6f7420636f6d706c657465642c207075726368617365206e6f742060008301527f616c6c6f776564000000000000000000000000000000000000000000000000006020830152604082019050919050565b60006116e0602683611b86565b91507f416464726573733a20696e73756666696369656e742062616c616e636520666f60008301527f722063616c6c00000000000000000000000000000000000000000000000000006020830152604082019050919050565b6000611746602a83611b86565b91507f43726f776473616c653a2062656e656669636961727920697320746865207a6560008301527f726f2061646472657373000000000000000000000000000000000000000000006020830152604082019050919050565b60006117ac601d83611b86565b91507f416464726573733a2063616c6c20746f206e6f6e2d636f6e74726163740000006000830152602082019050919050565b60006117ec602a83611b86565b91507f5361666545524332303a204552433230206f7065726174696f6e20646964206e60008301527f6f742073756363656564000000000000000000000000000000000000000000006020830152604082019050919050565b6000611852601f83611b86565b91507f5265656e7472616e637947756172643a207265656e7472616e742063616c6c006000830152602082019050919050565b6000611892601983611b86565b91507f43726f776473616c653a20776569416d6f756e742069732030000000000000006000830152602082019050919050565b6118ce81611c97565b82525050565b60006118e082846115f4565b915081905092915050565b600060208201905061190060008301846115d6565b92915050565b600060208201905061191b60008301846115c7565b92915050565b600060408201905061193660008301856115d6565b61194360208301846118c5565b9392505050565b600060208201905061195f60008301846115e5565b92915050565b600060208201905061197a6000830184611625565b92915050565b6000602082019050818103600083015261199a8184611634565b905092915050565b600060608201905081810360008301526119bc8186611634565b90506119cb60208301856118c5565b6119d860408301846115c7565b949350505050565b600060208201905081810360008301526119f98161166d565b9050919050565b60006020820190508181036000830152611a19816116d3565b9050919050565b60006020820190508181036000830152611a3981611739565b9050919050565b60006020820190508181036000830152611a598161179f565b9050919050565b60006020820190508181036000830152611a79816117df565b9050919050565b60006020820190508181036000830152611a9981611845565b9050919050565b60006020820190508181036000830152611ab981611885565b9050919050565b6000602082019050611ad560008301846118c5565b92915050565b6000604082019050611af060008301856118c5565b611afd60208301846118c5565b9392505050565b6000604051905081810181811067ffffffffffffffff82111715611b2b57611b2a611d36565b5b8060405250919050565b600067ffffffffffffffff821115611b5057611b4f611d36565b5b601f19601f8301169050602081019050919050565b600081519050919050565b600081519050919050565b600081905092915050565b600082825260208201905092915050565b6000611ba282611c97565b9150611bad83611c97565b9250827fffffffffffffffffffffffffffffffffffffffffffffffffffffffffffffffff03821115611be257611be1611d07565b5b828201905092915050565b6000611bf882611c97565b9150611c0383611c97565b9250817fffffffffffffffffffffffffffffffffffffffffffffffffffffffffffffffff0483118215151615611c3c57611c3b611d07565b5b828202905092915050565b6000611c5282611c77565b9050919050565b6000611c6482611c77565b9050919050565b60008115159050919050565b600073ffffffffffffffffffffffffffffffffffffffff82169050919050565b6000819050919050565b6000611cac82611cb3565b9050919050565b6000611cbe82611c77565b9050919050565b82818337600083830152505050565b60005b83811015611cf2578082015181840152602081019050611cd7565b83811115611d01576000848401525b50505050565b7f4e487b7100000000000000000000000000000000000000000000000000000000600052601160045260246000fd5b7f4e487b7100000000000000000000000000000000000000000000000000000000600052604160045260246000fd5b6000601f19601f8301169050919050565b611d7f81611c47565b8114611d8a57600080fd5b50565b611d9681611c59565b8114611da157600080fd5b50565b611dad81611c6b565b8114611db857600080fd5b50565b611dc481611c97565b8114611dcf57600080fd5b5056fea2646970667358221220416b465563a91ec586ffddaf22fb4cf2c2b23b7d46ae03f635d55c53f95ccef464736f6c63430008000033",
  "immutableReferences": {},
  "source": "pragma solidity ^0.8.0;\n\nimport \"./Crowdsale.sol\";\nimport \"./KYC.sol\";\nimport \"./Voting.sol\";\n\ncontract TokenSale is Crowdsale {\n    KYC kyc;\n    Voting vtc;\n    constructor(\n        uint256 rate, // rate in TKNbits\n        address payable wallet,\n        IERC20 token,\n        KYC _kyc,\n        Voting _vtc\n    )\n    Crowdsale(rate, payable(address(this)), token) {\n        kyc = _kyc;\n        vtc = _vtc;\n    }\n    function _preValidatePurchase(address beneficiary,uint256 weiAmount) internal override {\n        super._preValidatePurchase(beneficiary, weiAmount);\n        require(kyc.kycCompleted(msg.sender), \"Kyc not completed, purchase not allowed\");\n        vtc.contribute(msg.sender);\n    }\n    //to return total amount of wei collected\n    function totalAmountCollected() public view returns(uint) {\n        return weiRaised();\n    } \n    function balanceOfContract() public view returns(uint) {\n        return address(this).balance;\n    }\n\n    //to check whether KYC is completed or not\n    function isKycVerified(address _address) public view returns(bool) {\n        return kyc.kycCompleted(_address);\n    }\n\n    //for creating a request\n    function makeMoneyRequest(string memory _description, uint _value, address payable _recipient) public {\n        //executing suitable function\n        vtc.createRequest(_description, _value, _recipient);\n    }\n\n    //for accepting the request by investor\n    function voteYes(uint index) public {\n        vtc.approveRequest(index);\n    }\n\n    //for getting the final results\n    function getVoteResult(uint index) public returns(bool){\n        return vtc.finalizeRequest(index);\n    }\n\n    //getting all the request\n    function getRequestDescription(uint index) public view returns(string memory) {\n        return vtc.getRequestDescription(index);\n    }\n    function getRequestValue(uint index) public view returns(uint) {\n        return vtc.getRequestValue(index);\n    }\n    function getRequestRecipient(uint index) public view returns(address payable) {\n        return vtc.getRequestRecipient(index);\n    }\n    function getRequestComplete(uint index) public view returns(bool) {\n        return vtc.getRequestComplete(index);\n    }\n    function getRequestApprovalCount(uint index) public view returns(uint) {\n        return vtc.getRequestApprovalCount(index);\n    }\n\n    //make kyc request\n    function makeKycRequest(address _address) public {\n        kyc.kycRequest(_address);\n    }                                                                                                                                                                                                                           \n}",
  "sourcePath": "/home/ubuntu20/Dev/eth/Github/CryptoTrust/contracts/TokenSale.sol",
  "compiler": {
    "name": "solc",
    "version": "0.8.0+commit.c7dfd78e.Emscripten.clang"
  },
  "schemaVersion": "3.3.4",
  "updatedAt": "2021-06-20T09:04:18.597Z",
  "devdoc": {
    "kind": "dev",
    "methods": {
      "buyTokens(address)": {
        "details": "low level token purchase ***DO NOT OVERRIDE*** This function has a non-reentrancy guard, so it shouldn't be called by another `nonReentrant` function.",
        "params": {
          "beneficiary": "Recipient of the token purchase"
        }
      },
      "rate()": {
        "returns": {
          "_0": "the number of token units a buyer gets per wei."
        }
      },
      "token()": {
        "returns": {
          "_0": "the token being sold."
        }
      },
      "wallet()": {
        "returns": {
          "_0": "the address where funds are collected."
        }
      },
      "weiRaised()": {
        "returns": {
          "_0": "the amount of wei raised."
        }
      }
    },
    "version": 1
  },
  "userdoc": {
    "events": {
      "TokensPurchased(address,address,uint256,uint256)": {
        "notice": "Event for token purchase logging"
      }
    },
    "kind": "user",
    "methods": {},
    "version": 1
  }
}