{
  "contractName": "Token",
  "abi": [
    {
      "inputs": [
        {
          "internalType": "uint256",
          "name": "_initialSupply",
          "type": "uint256"
        },
        {
          "internalType": "contract Voting",
          "name": "_vtc",
          "type": "address"
        }
      ],
      "stateMutability": "nonpayable",
      "type": "constructor"
    },
    {
      "anonymous": false,
      "inputs": [
        {
          "indexed": true,
          "internalType": "address",
          "name": "owner",
          "type": "address"
        },
        {
          "indexed": true,
          "internalType": "address",
          "name": "spender",
          "type": "address"
        },
        {
          "indexed": false,
          "internalType": "uint256",
          "name": "value",
          "type": "uint256"
        }
      ],
      "name": "Approval",
      "type": "event"
    },
    {
      "anonymous": false,
      "inputs": [
        {
          "indexed": true,
          "internalType": "address",
          "name": "from",
          "type": "address"
        },
        {
          "indexed": true,
          "internalType": "address",
          "name": "to",
          "type": "address"
        },
        {
          "indexed": false,
          "internalType": "uint256",
          "name": "value",
          "type": "uint256"
        }
      ],
      "name": "Transfer",
      "type": "event"
    },
    {
      "inputs": [
        {
          "internalType": "address",
          "name": "owner",
          "type": "address"
        },
        {
          "internalType": "address",
          "name": "spender",
          "type": "address"
        }
      ],
      "name": "allowance",
      "outputs": [
        {
          "internalType": "uint256",
          "name": "",
          "type": "uint256"
        }
      ],
      "stateMutability": "view",
      "type": "function",
      "constant": true
    },
    {
      "inputs": [
        {
          "internalType": "address",
          "name": "spender",
          "type": "address"
        },
        {
          "internalType": "uint256",
          "name": "amount",
          "type": "uint256"
        }
      ],
      "name": "approve",
      "outputs": [
        {
          "internalType": "bool",
          "name": "",
          "type": "bool"
        }
      ],
      "stateMutability": "nonpayable",
      "type": "function"
    },
    {
      "inputs": [
        {
          "internalType": "address",
          "name": "account",
          "type": "address"
        }
      ],
      "name": "balanceOf",
      "outputs": [
        {
          "internalType": "uint256",
          "name": "",
          "type": "uint256"
        }
      ],
      "stateMutability": "view",
      "type": "function",
      "constant": true
    },
    {
      "inputs": [],
      "name": "decimals",
      "outputs": [
        {
          "internalType": "uint8",
          "name": "",
          "type": "uint8"
        }
      ],
      "stateMutability": "view",
      "type": "function",
      "constant": true
    },
    {
      "inputs": [
        {
          "internalType": "address",
          "name": "spender",
          "type": "address"
        },
        {
          "internalType": "uint256",
          "name": "subtractedValue",
          "type": "uint256"
        }
      ],
      "name": "decreaseAllowance",
      "outputs": [
        {
          "internalType": "bool",
          "name": "",
          "type": "bool"
        }
      ],
      "stateMutability": "nonpayable",
      "type": "function"
    },
    {
      "inputs": [
        {
          "internalType": "address",
          "name": "spender",
          "type": "address"
        },
        {
          "internalType": "uint256",
          "name": "addedValue",
          "type": "uint256"
        }
      ],
      "name": "increaseAllowance",
      "outputs": [
        {
          "internalType": "bool",
          "name": "",
          "type": "bool"
        }
      ],
      "stateMutability": "nonpayable",
      "type": "function"
    },
    {
      "inputs": [],
      "name": "name",
      "outputs": [
        {
          "internalType": "string",
          "name": "",
          "type": "string"
        }
      ],
      "stateMutability": "view",
      "type": "function",
      "constant": true
    },
    {
      "inputs": [],
      "name": "symbol",
      "outputs": [
        {
          "internalType": "string",
          "name": "",
          "type": "string"
        }
      ],
      "stateMutability": "view",
      "type": "function",
      "constant": true
    },
    {
      "inputs": [],
      "name": "totalSupply",
      "outputs": [
        {
          "internalType": "uint256",
          "name": "",
          "type": "uint256"
        }
      ],
      "stateMutability": "view",
      "type": "function",
      "constant": true
    },
    {
      "inputs": [
        {
          "internalType": "address",
          "name": "recipient",
          "type": "address"
        },
        {
          "internalType": "uint256",
          "name": "amount",
          "type": "uint256"
        }
      ],
      "name": "transfer",
      "outputs": [
        {
          "internalType": "bool",
          "name": "",
          "type": "bool"
        }
      ],
      "stateMutability": "nonpayable",
      "type": "function"
    },
    {
      "inputs": [
        {
          "internalType": "address",
          "name": "sender",
          "type": "address"
        },
        {
          "internalType": "address",
          "name": "recipient",
          "type": "address"
        },
        {
          "internalType": "uint256",
          "name": "amount",
          "type": "uint256"
        }
      ],
      "name": "transferFrom",
      "outputs": [
        {
          "internalType": "bool",
          "name": "",
          "type": "bool"
        }
      ],
      "stateMutability": "nonpayable",
      "type": "function"
    },
    {
      "inputs": [
        {
          "internalType": "address",
          "name": "_address",
          "type": "address"
        }
      ],
      "name": "isOwner",
      "outputs": [
        {
          "internalType": "bool",
          "name": "",
          "type": "bool"
        }
      ],
      "stateMutability": "view",
      "type": "function",
      "constant": true
    },
    {
      "inputs": [],
      "name": "getBalance",
      "outputs": [
        {
          "internalType": "uint256",
          "name": "",
          "type": "uint256"
        }
      ],
      "stateMutability": "nonpayable",
      "type": "function"
    },
    {
      "inputs": [
        {
          "internalType": "uint256",
          "name": "index",
          "type": "uint256"
        },
        {
          "internalType": "uint256",
          "name": "_amount",
          "type": "uint256"
        }
      ],
      "name": "takeMoneyOut",
      "outputs": [],
      "stateMutability": "nonpayable",
      "type": "function"
    }
  ],
  "bytecode": "0x60806040523480156200001157600080fd5b5060405162001eb838038062001eb88339818101604052810190620000379190620003dd565b6040518060400160405280600a81526020017f43727970746f6b656e73000000000000000000000000000000000000000000008152506040518060400160405280600581526020017f43525950540000000000000000000000000000000000000000000000000000008152508160039080519060200190620000bb929190620002ff565b508060049080519060200190620000d4929190620002ff565b50505033600560006101000a81548173ffffffffffffffffffffffffffffffffffffffff021916908373ffffffffffffffffffffffffffffffffffffffff16021790555080600660006101000a81548173ffffffffffffffffffffffffffffffffffffffff021916908373ffffffffffffffffffffffffffffffffffffffff1602179055506200018d600560009054906101000a900473ffffffffffffffffffffffffffffffffffffffff16836200019560201b60201c565b505062000638565b600073ffffffffffffffffffffffffffffffffffffffff168273ffffffffffffffffffffffffffffffffffffffff16141562000208576040517f08c379a0000000000000000000000000000000000000000000000000000000008152600401620001ff9062000471565b60405180910390fd5b6200021c60008383620002fa60201b60201c565b8060026000828254620002309190620004c1565b92505081905550806000808473ffffffffffffffffffffffffffffffffffffffff1673ffffffffffffffffffffffffffffffffffffffff1681526020019081526020016000206000828254620002879190620004c1565b925050819055508173ffffffffffffffffffffffffffffffffffffffff16600073ffffffffffffffffffffffffffffffffffffffff167fddf252ad1be2c89b69c2b068fc378daa952ba7f163c4a11628f55a4df523b3ef83604051620002ee919062000493565b60405180910390a35050565b505050565b8280546200030d9062000570565b90600052602060002090601f0160209004810192826200033157600085556200037d565b82601f106200034c57805160ff19168380011785556200037d565b828001600101855582156200037d579182015b828111156200037c5782518255916020019190600101906200035f565b5b5090506200038c919062000390565b5090565b5b80821115620003ab57600081600090555060010162000391565b5090565b600081519050620003c08162000604565b92915050565b600081519050620003d7816200061e565b92915050565b60008060408385031215620003f157600080fd5b60006200040185828601620003c6565b92505060206200041485828601620003af565b9150509250929050565b60006200042d601f83620004b0565b91507f45524332303a206d696e7420746f20746865207a65726f2061646472657373006000830152602082019050919050565b6200046b8162000566565b82525050565b600060208201905081810360008301526200048c816200041e565b9050919050565b6000602082019050620004aa600083018462000460565b92915050565b600082825260208201905092915050565b6000620004ce8262000566565b9150620004db8362000566565b9250827fffffffffffffffffffffffffffffffffffffffffffffffffffffffffffffffff03821115620005135762000512620005a6565b5b828201905092915050565b60006200052b8262000546565b9050919050565b60006200053f826200051e565b9050919050565b600073ffffffffffffffffffffffffffffffffffffffff82169050919050565b6000819050919050565b600060028204905060018216806200058957607f821691505b60208210811415620005a0576200059f620005d5565b5b50919050565b7f4e487b7100000000000000000000000000000000000000000000000000000000600052601160045260246000fd5b7f4e487b7100000000000000000000000000000000000000000000000000000000600052602260045260246000fd5b6200060f8162000532565b81146200061b57600080fd5b50565b620006298162000566565b81146200063557600080fd5b50565b61187080620006486000396000f3fe608060405234801561001057600080fd5b50600436106100ea5760003560e01c8063395093511161008c578063a457c2d711610066578063a457c2d714610275578063a9059cbb146102a5578063c0e84f1b146102d5578063dd62ed3e146102f1576100ea565b806339509351146101f757806370a082311461022757806395d89b4114610257576100ea565b806318160ddd116100c857806318160ddd1461015b57806323b872dd146101795780632f54bf6e146101a9578063313ce567146101d9576100ea565b806306fdde03146100ef578063095ea7b31461010d57806312065fe01461013d575b600080fd5b6100f7610321565b604051610104919061148e565b60405180910390f35b61012760048036038101906101229190610fe2565b6103b3565b6040516101349190611473565b60405180910390f35b6101456103d1565b60405161015291906115f0565b60405180910390f35b6101636103d9565b60405161017091906115f0565b60405180910390f35b610193600480360381019061018e9190610f93565b6103e3565b6040516101a09190611473565b60405180910390f35b6101c360048036038101906101be9190610f2e565b6104e4565b6040516101d09190611473565b60405180910390f35b6101e161053e565b6040516101ee919061160b565b60405180910390f35b610211600480360381019061020c9190610fe2565b610547565b60405161021e9190611473565b60405180910390f35b610241600480360381019061023c9190610f2e565b6105f3565b60405161024e91906115f0565b60405180910390f35b61025f61063b565b60405161026c919061148e565b60405180910390f35b61028f600480360381019061028a9190610fe2565b6106cd565b60405161029c9190611473565b60405180910390f35b6102bf60048036038101906102ba9190610fe2565b6107c1565b6040516102cc9190611473565b60405180910390f35b6102ef60048036038101906102ea9190611047565b6107df565b005b61030b60048036038101906103069190610f57565b610a11565b60405161031891906115f0565b60405180910390f35b60606003805461033090611754565b80601f016020809104026020016040519081016040528092919081815260200182805461035c90611754565b80156103a95780601f1061037e576101008083540402835291602001916103a9565b820191906000526020600020905b81548152906001019060200180831161038c57829003601f168201915b5050505050905090565b60006103c76103c0610a98565b8484610aa0565b6001905092915050565b600047905090565b6000600254905090565b60006103f0848484610c6b565b6000600160008673ffffffffffffffffffffffffffffffffffffffff1673ffffffffffffffffffffffffffffffffffffffff168152602001908152602001600020600061043b610a98565b73ffffffffffffffffffffffffffffffffffffffff1673ffffffffffffffffffffffffffffffffffffffff168152602001908152602001600020549050828110156104bb576040517f08c379a00000000000000000000000000000000000000000000000000000000081526004016104b290611550565b60405180910390fd5b6104d8856104c7610a98565b85846104d39190611698565b610aa0565b60019150509392505050565b60008173ffffffffffffffffffffffffffffffffffffffff16600560009054906101000a900473ffffffffffffffffffffffffffffffffffffffff1673ffffffffffffffffffffffffffffffffffffffff16149050919050565b60006012905090565b60006105e9610554610a98565b848460016000610562610a98565b73ffffffffffffffffffffffffffffffffffffffff1673ffffffffffffffffffffffffffffffffffffffff16815260200190815260200160002060008873ffffffffffffffffffffffffffffffffffffffff1673ffffffffffffffffffffffffffffffffffffffff168152602001908152602001600020546105e49190611642565b610aa0565b6001905092915050565b60008060008373ffffffffffffffffffffffffffffffffffffffff1673ffffffffffffffffffffffffffffffffffffffff168152602001908152602001600020549050919050565b60606004805461064a90611754565b80601f016020809104026020016040519081016040528092919081815260200182805461067690611754565b80156106c35780601f10610698576101008083540402835291602001916106c3565b820191906000526020600020905b8154815290600101906020018083116106a657829003601f168201915b5050505050905090565b600080600160006106dc610a98565b73ffffffffffffffffffffffffffffffffffffffff1673ffffffffffffffffffffffffffffffffffffffff16815260200190815260200160002060008573ffffffffffffffffffffffffffffffffffffffff1673ffffffffffffffffffffffffffffffffffffffff16815260200190815260200160002054905082811015610799576040517f08c379a0000000000000000000000000000000000000000000000000000000008152600401610790906115d0565b60405180910390fd5b6107b66107a4610a98565b8585846107b19190611698565b610aa0565b600191505092915050565b60006107d56107ce610a98565b8484610c6b565b6001905092915050565b600560009054906101000a900473ffffffffffffffffffffffffffffffffffffffff1673ffffffffffffffffffffffffffffffffffffffff163373ffffffffffffffffffffffffffffffffffffffff161461086f576040517f08c379a000000000000000000000000000000000000000000000000000000000815260040161086690611530565b60405180910390fd5b600660009054906101000a900473ffffffffffffffffffffffffffffffffffffffff1673ffffffffffffffffffffffffffffffffffffffff166303441006836040518263ffffffff1660e01b81526004016108ca91906115f0565b602060405180830381600087803b1580156108e457600080fd5b505af11580156108f8573d6000803e3d6000fd5b505050506040513d601f19601f8201168201806040525081019061091c919061101e565b61095b576040517f08c379a0000000000000000000000000000000000000000000000000000000008152600401610952906115b0565b60405180910390fd5b4781111561099e576040517f08c379a000000000000000000000000000000000000000000000000000000000815260040161099590611510565b60405180910390fd5b6000600560009054906101000a900473ffffffffffffffffffffffffffffffffffffffff1690508073ffffffffffffffffffffffffffffffffffffffff166108fc839081150290604051600060405180830381858888f19350505050158015610a0b573d6000803e3d6000fd5b50505050565b6000600160008473ffffffffffffffffffffffffffffffffffffffff1673ffffffffffffffffffffffffffffffffffffffff16815260200190815260200160002060008373ffffffffffffffffffffffffffffffffffffffff1673ffffffffffffffffffffffffffffffffffffffff16815260200190815260200160002054905092915050565b600033905090565b600073ffffffffffffffffffffffffffffffffffffffff168373ffffffffffffffffffffffffffffffffffffffff161415610b10576040517f08c379a0000000000000000000000000000000000000000000000000000000008152600401610b0790611590565b60405180910390fd5b600073ffffffffffffffffffffffffffffffffffffffff168273ffffffffffffffffffffffffffffffffffffffff161415610b80576040517f08c379a0000000000000000000000000000000000000000000000000000000008152600401610b77906114d0565b60405180910390fd5b80600160008573ffffffffffffffffffffffffffffffffffffffff1673ffffffffffffffffffffffffffffffffffffffff16815260200190815260200160002060008473ffffffffffffffffffffffffffffffffffffffff1673ffffffffffffffffffffffffffffffffffffffff168152602001908152602001600020819055508173ffffffffffffffffffffffffffffffffffffffff168373ffffffffffffffffffffffffffffffffffffffff167f8c5be1e5ebec7d5bd14f71427d1e84f3dd0314c0f7b2291e5b200ac8c7c3b92583604051610c5e91906115f0565b60405180910390a3505050565b600073ffffffffffffffffffffffffffffffffffffffff168373ffffffffffffffffffffffffffffffffffffffff161415610cdb576040517f08c379a0000000000000000000000000000000000000000000000000000000008152600401610cd290611570565b60405180910390fd5b600073ffffffffffffffffffffffffffffffffffffffff168273ffffffffffffffffffffffffffffffffffffffff161415610d4b576040517f08c379a0000000000000000000000000000000000000000000000000000000008152600401610d42906114b0565b60405180910390fd5b610d56838383610eea565b60008060008573ffffffffffffffffffffffffffffffffffffffff1673ffffffffffffffffffffffffffffffffffffffff16815260200190815260200160002054905081811015610ddc576040517f08c379a0000000000000000000000000000000000000000000000000000000008152600401610dd3906114f0565b60405180910390fd5b8181610de89190611698565b6000808673ffffffffffffffffffffffffffffffffffffffff1673ffffffffffffffffffffffffffffffffffffffff16815260200190815260200160002081905550816000808573ffffffffffffffffffffffffffffffffffffffff1673ffffffffffffffffffffffffffffffffffffffff1681526020019081526020016000206000828254610e789190611642565b925050819055508273ffffffffffffffffffffffffffffffffffffffff168473ffffffffffffffffffffffffffffffffffffffff167fddf252ad1be2c89b69c2b068fc378daa952ba7f163c4a11628f55a4df523b3ef84604051610edc91906115f0565b60405180910390a350505050565b505050565b600081359050610efe816117f5565b92915050565b600081519050610f138161180c565b92915050565b600081359050610f2881611823565b92915050565b600060208284031215610f4057600080fd5b6000610f4e84828501610eef565b91505092915050565b60008060408385031215610f6a57600080fd5b6000610f7885828601610eef565b9250506020610f8985828601610eef565b9150509250929050565b600080600060608486031215610fa857600080fd5b6000610fb686828701610eef565b9350506020610fc786828701610eef565b9250506040610fd886828701610f19565b9150509250925092565b60008060408385031215610ff557600080fd5b600061100385828601610eef565b925050602061101485828601610f19565b9150509250929050565b60006020828403121561103057600080fd5b600061103e84828501610f04565b91505092915050565b6000806040838503121561105a57600080fd5b600061106885828601610f19565b925050602061107985828601610f19565b9150509250929050565b61108c816116de565b82525050565b600061109d82611626565b6110a78185611631565b93506110b7818560208601611721565b6110c0816117e4565b840191505092915050565b60006110d8602383611631565b91507f45524332303a207472616e7366657220746f20746865207a65726f206164647260008301527f65737300000000000000000000000000000000000000000000000000000000006020830152604082019050919050565b600061113e602283611631565b91507f45524332303a20617070726f766520746f20746865207a65726f20616464726560008301527f73730000000000000000000000000000000000000000000000000000000000006020830152604082019050919050565b60006111a4602683611631565b91507f45524332303a207472616e7366657220616d6f756e742065786365656473206260008301527f616c616e636500000000000000000000000000000000000000000000000000006020830152604082019050919050565b600061120a601283611631565b91507f496e73756666696369656e742066756e647300000000000000000000000000006000830152602082019050919050565b600061124a601683611631565b91507f4f6e6c79206f776e6572207265717569726564202121000000000000000000006000830152602082019050919050565b600061128a602883611631565b91507f45524332303a207472616e7366657220616d6f756e742065786365656473206160008301527f6c6c6f77616e63650000000000000000000000000000000000000000000000006020830152604082019050919050565b60006112f0602583611631565b91507f45524332303a207472616e736665722066726f6d20746865207a65726f20616460008301527f64726573730000000000000000000000000000000000000000000000000000006020830152604082019050919050565b6000611356602483611631565b91507f45524332303a20617070726f76652066726f6d20746865207a65726f2061646460008301527f72657373000000000000000000000000000000000000000000000000000000006020830152604082019050919050565b60006113bc601f83611631565b91507f52657175657374206973206e6f74206265696e67206772616e746564202121006000830152602082019050919050565b60006113fc602583611631565b91507f45524332303a2064656372656173656420616c6c6f77616e63652062656c6f7760008301527f207a65726f0000000000000000000000000000000000000000000000000000006020830152604082019050919050565b61145e8161170a565b82525050565b61146d81611714565b82525050565b60006020820190506114886000830184611083565b92915050565b600060208201905081810360008301526114a88184611092565b905092915050565b600060208201905081810360008301526114c9816110cb565b9050919050565b600060208201905081810360008301526114e981611131565b9050919050565b6000602082019050818103600083015261150981611197565b9050919050565b60006020820190508181036000830152611529816111fd565b9050919050565b600060208201905081810360008301526115498161123d565b9050919050565b600060208201905081810360008301526115698161127d565b9050919050565b60006020820190508181036000830152611589816112e3565b9050919050565b600060208201905081810360008301526115a981611349565b9050919050565b600060208201905081810360008301526115c9816113af565b9050919050565b600060208201905081810360008301526115e9816113ef565b9050919050565b60006020820190506116056000830184611455565b92915050565b60006020820190506116206000830184611464565b92915050565b600081519050919050565b600082825260208201905092915050565b600061164d8261170a565b91506116588361170a565b9250827fffffffffffffffffffffffffffffffffffffffffffffffffffffffffffffffff0382111561168d5761168c611786565b5b828201905092915050565b60006116a38261170a565b91506116ae8361170a565b9250828210156116c1576116c0611786565b5b828203905092915050565b60006116d7826116ea565b9050919050565b60008115159050919050565b600073ffffffffffffffffffffffffffffffffffffffff82169050919050565b6000819050919050565b600060ff82169050919050565b60005b8381101561173f578082015181840152602081019050611724565b8381111561174e576000848401525b50505050565b6000600282049050600182168061176c57607f821691505b602082108114156117805761177f6117b5565b5b50919050565b7f4e487b7100000000000000000000000000000000000000000000000000000000600052601160045260246000fd5b7f4e487b7100000000000000000000000000000000000000000000000000000000600052602260045260246000fd5b6000601f19601f8301169050919050565b6117fe816116cc565b811461180957600080fd5b50565b611815816116de565b811461182057600080fd5b50565b61182c8161170a565b811461183757600080fd5b5056fea264697066735822122094823f009f7eb9fec952a6ffe6ef3626b98b17884d0c9a4f433ec5b09312a1e064736f6c63430008000033",
  "immutableReferences": {},
  "source": "pragma solidity ^0.8.0;\n\nimport \"./ERC20.sol\";\nimport \"./Voting.sol\";\ncontract Token is ERC20 {\n    //declaring the owner\n    address private owner;\n    Voting vtc;\n    //modifier for owner only\n    modifier onlyOwner() {\n        require(msg.sender == owner, \"Only owner required !!\");\n        _;\n    }\n    //taking parameter for initial supply\n    constructor(uint _initialSupply, Voting _vtc) ERC20(\"Cryptokens\",\"CRYPT\") {\n        owner = msg.sender;\n        vtc = _vtc;\n        _mint(owner, _initialSupply);\n    }\n\n    function isOwner(address _address) public view returns(bool) {\n        return owner == _address;\n    }\n\n    function getBalance() public returns(uint) {\n        return address(this).balance;\n    }\n    //withdraw money from contract\n    function takeMoneyOut(uint index, uint _amount) public onlyOwner {\n        //validation for voting...\n        require(vtc.finalizeRequest(index), \"Request is not being granted !!\");\n        //checking whether the requested amount is less than available amount\n        require(_amount <= address(this).balance, \"Insufficient funds\");\n        address payable to = payable(owner);\n        //sending the requested amount to owner\n        to.transfer(_amount);\n    }\n}",
  "sourcePath": "/home/ubuntu20/Dev/eth/Github/CryptoTrust/contracts/Token.sol",
  "compiler": {
    "name": "solc",
    "version": "0.8.0+commit.c7dfd78e.Emscripten.clang"
  },
  "schemaVersion": "3.3.4",
  "updatedAt": "2021-06-20T08:54:54.946Z",
  "networkType": "ethereum",
  "devdoc": {
    "kind": "dev",
    "methods": {
      "allowance(address,address)": {
        "details": "See {IERC20-allowance}."
      },
      "approve(address,uint256)": {
        "details": "See {IERC20-approve}. Requirements: - `spender` cannot be the zero address."
      },
      "balanceOf(address)": {
        "details": "See {IERC20-balanceOf}."
      },
      "decimals()": {
        "details": "Returns the number of decimals used to get its user representation. For example, if `decimals` equals `2`, a balance of `505` tokens should be displayed to a user as `5,05` (`505 / 10 ** 2`). Tokens usually opt for a value of 18, imitating the relationship between Ether and Wei. This is the value {ERC20} uses, unless this function is overridden; NOTE: This information is only used for _display_ purposes: it in no way affects any of the arithmetic of the contract, including {IERC20-balanceOf} and {IERC20-transfer}."
      },
      "decreaseAllowance(address,uint256)": {
        "details": "Atomically decreases the allowance granted to `spender` by the caller. This is an alternative to {approve} that can be used as a mitigation for problems described in {IERC20-approve}. Emits an {Approval} event indicating the updated allowance. Requirements: - `spender` cannot be the zero address. - `spender` must have allowance for the caller of at least `subtractedValue`."
      },
      "increaseAllowance(address,uint256)": {
        "details": "Atomically increases the allowance granted to `spender` by the caller. This is an alternative to {approve} that can be used as a mitigation for problems described in {IERC20-approve}. Emits an {Approval} event indicating the updated allowance. Requirements: - `spender` cannot be the zero address."
      },
      "name()": {
        "details": "Returns the name of the token."
      },
      "symbol()": {
        "details": "Returns the symbol of the token, usually a shorter version of the name."
      },
      "totalSupply()": {
        "details": "See {IERC20-totalSupply}."
      },
      "transfer(address,uint256)": {
        "details": "See {IERC20-transfer}. Requirements: - `recipient` cannot be the zero address. - the caller must have a balance of at least `amount`."
      },
      "transferFrom(address,address,uint256)": {
        "details": "See {IERC20-transferFrom}. Emits an {Approval} event indicating the updated allowance. This is not required by the EIP. See the note at the beginning of {ERC20}. Requirements: - `sender` and `recipient` cannot be the zero address. - `sender` must have a balance of at least `amount`. - the caller must have allowance for ``sender``'s tokens of at least `amount`."
      }
    },
    "version": 1
  },
  "userdoc": {
    "kind": "user",
    "methods": {},
    "version": 1
  }
}