{
  "contractName": "Voting",
  "abi": [
    {
      "anonymous": false,
      "inputs": [
        {
          "indexed": false,
          "internalType": "string",
          "name": "message",
          "type": "string"
        },
        {
          "indexed": false,
          "internalType": "address",
          "name": "sender",
          "type": "address"
        },
        {
          "indexed": false,
          "internalType": "uint256",
          "name": "indexNo",
          "type": "uint256"
        }
      ],
      "name": "Event",
      "type": "event"
    },
    {
      "inputs": [
        {
          "internalType": "uint256",
          "name": "",
          "type": "uint256"
        }
      ],
      "name": "allRequest",
      "outputs": [
        {
          "internalType": "string",
          "name": "description",
          "type": "string"
        },
        {
          "internalType": "uint256",
          "name": "value",
          "type": "uint256"
        },
        {
          "internalType": "address payable",
          "name": "recipient",
          "type": "address"
        },
        {
          "internalType": "bool",
          "name": "complete",
          "type": "bool"
        },
        {
          "internalType": "uint256",
          "name": "approvalCount",
          "type": "uint256"
        }
      ],
      "stateMutability": "view",
      "type": "function",
      "constant": true
    },
    {
      "inputs": [],
      "name": "allRequestLength",
      "outputs": [
        {
          "internalType": "uint256",
          "name": "",
          "type": "uint256"
        }
      ],
      "stateMutability": "view",
      "type": "function",
      "constant": true
    },
    {
      "inputs": [
        {
          "internalType": "address",
          "name": "",
          "type": "address"
        }
      ],
      "name": "approvers",
      "outputs": [
        {
          "internalType": "bool",
          "name": "",
          "type": "bool"
        }
      ],
      "stateMutability": "view",
      "type": "function",
      "constant": true
    },
    {
      "inputs": [],
      "name": "approversCount",
      "outputs": [
        {
          "internalType": "uint256",
          "name": "",
          "type": "uint256"
        }
      ],
      "stateMutability": "view",
      "type": "function",
      "constant": true
    },
    {
      "inputs": [
        {
          "internalType": "address",
          "name": "_address",
          "type": "address"
        }
      ],
      "name": "contribute",
      "outputs": [],
      "stateMutability": "nonpayable",
      "type": "function"
    },
    {
      "inputs": [
        {
          "internalType": "string",
          "name": "_description",
          "type": "string"
        },
        {
          "internalType": "uint256",
          "name": "_value",
          "type": "uint256"
        },
        {
          "internalType": "address payable",
          "name": "_recipient",
          "type": "address"
        }
      ],
      "name": "createRequest",
      "outputs": [],
      "stateMutability": "nonpayable",
      "type": "function"
    },
    {
      "inputs": [
        {
          "internalType": "uint256",
          "name": "_index",
          "type": "uint256"
        }
      ],
      "name": "approveRequest",
      "outputs": [],
      "stateMutability": "nonpayable",
      "type": "function"
    },
    {
      "inputs": [
        {
          "internalType": "uint256",
          "name": "index",
          "type": "uint256"
        }
      ],
      "name": "finalizeRequest",
      "outputs": [
        {
          "internalType": "bool",
          "name": "",
          "type": "bool"
        }
      ],
      "stateMutability": "nonpayable",
      "type": "function"
    },
    {
      "inputs": [
        {
          "internalType": "uint256",
          "name": "index",
          "type": "uint256"
        }
      ],
      "name": "getRequestDescription",
      "outputs": [
        {
          "internalType": "string",
          "name": "",
          "type": "string"
        }
      ],
      "stateMutability": "view",
      "type": "function",
      "constant": true
    },
    {
      "inputs": [
        {
          "internalType": "uint256",
          "name": "index",
          "type": "uint256"
        }
      ],
      "name": "getRequestValue",
      "outputs": [
        {
          "internalType": "uint256",
          "name": "",
          "type": "uint256"
        }
      ],
      "stateMutability": "view",
      "type": "function",
      "constant": true
    },
    {
      "inputs": [
        {
          "internalType": "uint256",
          "name": "index",
          "type": "uint256"
        }
      ],
      "name": "getRequestRecipient",
      "outputs": [
        {
          "internalType": "address payable",
          "name": "",
          "type": "address"
        }
      ],
      "stateMutability": "view",
      "type": "function",
      "constant": true
    },
    {
      "inputs": [
        {
          "internalType": "uint256",
          "name": "index",
          "type": "uint256"
        }
      ],
      "name": "getRequestComplete",
      "outputs": [
        {
          "internalType": "bool",
          "name": "",
          "type": "bool"
        }
      ],
      "stateMutability": "view",
      "type": "function",
      "constant": true
    },
    {
      "inputs": [
        {
          "internalType": "uint256",
          "name": "index",
          "type": "uint256"
        }
      ],
      "name": "getRequestApprovalCount",
      "outputs": [
        {
          "internalType": "uint256",
          "name": "",
          "type": "uint256"
        }
      ],
      "stateMutability": "view",
      "type": "function",
      "constant": true
    }
  ],
  "bytecode": "0x608060405234801561001057600080fd5b5061168c806100206000396000f3fe608060405234801561001057600080fd5b50600436106100cf5760003560e01c806373e888fd1161008c5780638e38ed85116100665780638e38ed8514610238578063acf99d9d1461026c578063c2eb0a3a1461029c578063d7d1bbdb146102cc576100cf565b806373e888fd146101e257806382fde093146101fe5780638a9cfd551461021c576100cf565b806303441006146100d45780630a14439114610104578063519198ca146101345780635b8575a91461016457806361568fa4146101945780636ddfaed1146101b2575b600080fd5b6100ee60048036038101906100e99190610eec565b6102e8565b6040516100fb9190611165565b60405180910390f35b61011e60048036038101906101199190610e5c565b6104c3565b60405161012b9190611165565b60405180910390f35b61014e60048036038101906101499190610eec565b6104e3565b60405161015b9190611330565b60405180910390f35b61017e60048036038101906101799190610eec565b610538565b60405161018b919061114a565b60405180910390f35b61019c6105ad565b6040516101a99190611330565b60405180910390f35b6101cc60048036038101906101c79190610eec565b6105b3565b6040516101d99190611180565b60405180910390f35b6101fc60048036038101906101f79190610e5c565b610690565b005b610206610754565b6040516102139190611330565b60405180910390f35b61023660048036038101906102319190610e85565b61075a565b005b610252600480360381019061024d9190610eec565b6108c1565b6040516102639594939291906111a2565b60405180910390f35b61028660048036038101906102819190610eec565b6109bc565b6040516102939190611165565b60405180910390f35b6102b660048036038101906102b19190610eec565b610a1e565b6040516102c39190611330565b60405180910390f35b6102e660048036038101906102e19190610eec565b610a73565b005b600060018281548110610324577f4e487b7100000000000000000000000000000000000000000000000000000000600052603260045260246000fd5b906000526020600020906005020160020160149054906101000a900460ff1615610383576040517f08c379a000000000000000000000000000000000000000000000000000000000815260040161037a90611258565b60405180910390fd5b600260005461039291906113c8565b600183815481106103cc577f4e487b7100000000000000000000000000000000000000000000000000000000600052603260045260246000fd5b9060005260206000209060050201600301541161041e576040517f08c379a000000000000000000000000000000000000000000000000000000000815260040161041590611238565b60405180910390fd5b6001808381548110610459577f4e487b7100000000000000000000000000000000000000000000000000000000600052603260045260246000fd5b906000526020600020906005020160020160146101000a81548160ff0219169083151502179055507f032ae0241578058477ccf3b0b25048c47f6c892c9b034489ba76bfce8bebf42633836040516104b29291906112b8565b60405180910390a160019050919050565b60036020528060005260406000206000915054906101000a900460ff1681565b60006001828154811061051f577f4e487b7100000000000000000000000000000000000000000000000000000000600052603260045260246000fd5b9060005260206000209060050201600101549050919050565b600060018281548110610574577f4e487b7100000000000000000000000000000000000000000000000000000000600052603260045260246000fd5b906000526020600020906005020160020160009054906101000a900473ffffffffffffffffffffffffffffffffffffffff169050919050565b60025481565b6060600182815481106105ef577f4e487b7100000000000000000000000000000000000000000000000000000000600052603260045260246000fd5b9060005260206000209060050201600001805461060b906114c9565b80601f0160208091040260200160405190810160405280929190818152602001828054610637906114c9565b80156106845780601f1061065957610100808354040283529160200191610684565b820191906000526020600020905b81548152906001019060200180831161066757829003601f168201915b50505050509050919050565b600360008273ffffffffffffffffffffffffffffffffffffffff1673ffffffffffffffffffffffffffffffffffffffff16815260200190815260200160002060009054906101000a900460ff166106f9576000808154809291906106f3906114fb565b91905055505b6001600360008373ffffffffffffffffffffffffffffffffffffffff1673ffffffffffffffffffffffffffffffffffffffff16815260200190815260200160002060006101000a81548160ff02191690831515021790555050565b60005481565b6000600180549050905060018081600181540180825580915050039060005260206000209050506000600182815481106107bd577f4e487b7100000000000000000000000000000000000000000000000000000000600052603260045260246000fd5b90600052602060002090600502019050848160000190805190602001906107e5929190610d12565b50838160010181905550828160020160006101000a81548173ffffffffffffffffffffffffffffffffffffffff021916908373ffffffffffffffffffffffffffffffffffffffff16021790555060008160020160146101000a81548160ff021916908315150217905550600081600301819055506002600081548092919061086c906114fb565b91905055507f032ae0241578058477ccf3b0b25048c47f6c892c9b034489ba76bfce8bebf42633600180805490506108a491906113f9565b6040516108b29291906112f4565b60405180910390a15050505050565b600181815481106108d157600080fd5b90600052602060002090600502016000915090508060000180546108f4906114c9565b80601f0160208091040260200160405190810160405280929190818152602001828054610920906114c9565b801561096d5780601f106109425761010080835404028352916020019161096d565b820191906000526020600020905b81548152906001019060200180831161095057829003601f168201915b5050505050908060010154908060020160009054906101000a900473ffffffffffffffffffffffffffffffffffffffff16908060020160149054906101000a900460ff16908060030154905085565b6000600182815481106109f8577f4e487b7100000000000000000000000000000000000000000000000000000000600052603260045260246000fd5b906000526020600020906005020160020160149054906101000a900460ff169050919050565b600060018281548110610a5a577f4e487b7100000000000000000000000000000000000000000000000000000000600052603260045260246000fd5b9060005260206000209060050201600301549050919050565b600360003373ffffffffffffffffffffffffffffffffffffffff1673ffffffffffffffffffffffffffffffffffffffff16815260200190815260200160002060009054906101000a900460ff16610aff576040517f08c379a0000000000000000000000000000000000000000000000000000000008152600401610af690611298565b60405180910390fd5b60018181548110610b39577f4e487b7100000000000000000000000000000000000000000000000000000000600052603260045260246000fd5b906000526020600020906005020160040160003373ffffffffffffffffffffffffffffffffffffffff1673ffffffffffffffffffffffffffffffffffffffff16815260200190815260200160002060009054906101000a900460ff1615610bd5576040517f08c379a0000000000000000000000000000000000000000000000000000000008152600401610bcc90611278565b60405180910390fd5b6001808281548110610c10577f4e487b7100000000000000000000000000000000000000000000000000000000600052603260045260246000fd5b906000526020600020906005020160040160003373ffffffffffffffffffffffffffffffffffffffff1673ffffffffffffffffffffffffffffffffffffffff16815260200190815260200160002060006101000a81548160ff02191690831515021790555060018181548110610caf577f4e487b7100000000000000000000000000000000000000000000000000000000600052603260045260246000fd5b90600052602060002090600502016003016000815480929190610cd1906114fb565b91905055507f032ae0241578058477ccf3b0b25048c47f6c892c9b034489ba76bfce8bebf4263382604051610d079291906111fc565b60405180910390a150565b828054610d1e906114c9565b90600052602060002090601f016020900481019282610d405760008555610d87565b82601f10610d5957805160ff1916838001178555610d87565b82800160010185558215610d87579182015b82811115610d86578251825591602001919060010190610d6b565b5b509050610d949190610d98565b5090565b5b80821115610db1576000816000905550600101610d99565b5090565b6000610dc8610dc38461137c565b61134b565b905082815260208101848484011115610de057600080fd5b610deb848285611487565b509392505050565b600081359050610e0281611611565b92915050565b600081359050610e1781611628565b92915050565b600082601f830112610e2e57600080fd5b8135610e3e848260208601610db5565b91505092915050565b600081359050610e568161163f565b92915050565b600060208284031215610e6e57600080fd5b6000610e7c84828501610df3565b91505092915050565b600080600060608486031215610e9a57600080fd5b600084013567ffffffffffffffff811115610eb457600080fd5b610ec086828701610e1d565b9350506020610ed186828701610e47565b9250506040610ee286828701610e08565b9150509250925092565b600060208284031215610efe57600080fd5b6000610f0c84828501610e47565b91505092915050565b610f1e8161143f565b82525050565b610f2d8161142d565b82525050565b610f3c81611451565b82525050565b6000610f4d826113ac565b610f5781856113b7565b9350610f67818560208601611496565b610f7081611600565b840191505092915050565b6000610f886018836113b7565b91507f596f7520417070726f76656420746865205265717565737400000000000000006000830152602082019050919050565b6000610fc86020836113b7565b91507f496e766573746f72732064656e69656420796f757220726571756573742021216000830152602082019050919050565b6000611008601f836113b7565b91507f5265717565737420697320616c72656164792066696e616c69736564202121006000830152602082019050919050565b60006110486011836113b7565b91507f596f75206861766520766f7465642021210000000000000000000000000000006000830152602082019050919050565b6000611088601a836113b7565b91507f4f6e6c7920417070726f766572732072657175697265642021210000000000006000830152602082019050919050565b60006110c86019836113b7565b91507f46696e616c697a6174696f6e20697320636f6d706c65746564000000000000006000830152602082019050919050565b6000611108601c836113b7565b91507f526571756573742043726561746564207375636365737366756c6c79000000006000830152602082019050919050565b6111448161147d565b82525050565b600060208201905061115f6000830184610f15565b92915050565b600060208201905061117a6000830184610f33565b92915050565b6000602082019050818103600083015261119a8184610f42565b905092915050565b600060a08201905081810360008301526111bc8188610f42565b90506111cb602083018761113b565b6111d86040830186610f15565b6111e56060830185610f33565b6111f2608083018461113b565b9695505050505050565b6000606082019050818103600083015261121581610f7b565b90506112246020830185610f24565b611231604083018461113b565b9392505050565b6000602082019050818103600083015261125181610fbb565b9050919050565b6000602082019050818103600083015261127181610ffb565b9050919050565b600060208201905081810360008301526112918161103b565b9050919050565b600060208201905081810360008301526112b18161107b565b9050919050565b600060608201905081810360008301526112d1816110bb565b90506112e06020830185610f24565b6112ed604083018461113b565b9392505050565b6000606082019050818103600083015261130d816110fb565b905061131c6020830185610f24565b611329604083018461113b565b9392505050565b6000602082019050611345600083018461113b565b92915050565b6000604051905081810181811067ffffffffffffffff82111715611372576113716115d1565b5b8060405250919050565b600067ffffffffffffffff821115611397576113966115d1565b5b601f19601f8301169050602081019050919050565b600081519050919050565b600082825260208201905092915050565b60006113d38261147d565b91506113de8361147d565b9250826113ee576113ed611573565b5b828204905092915050565b60006114048261147d565b915061140f8361147d565b92508282101561142257611421611544565b5b828203905092915050565b60006114388261145d565b9050919050565b600061144a8261145d565b9050919050565b60008115159050919050565b600073ffffffffffffffffffffffffffffffffffffffff82169050919050565b6000819050919050565b82818337600083830152505050565b60005b838110156114b4578082015181840152602081019050611499565b838111156114c3576000848401525b50505050565b600060028204905060018216806114e157607f821691505b602082108114156114f5576114f46115a2565b5b50919050565b60006115068261147d565b91507fffffffffffffffffffffffffffffffffffffffffffffffffffffffffffffffff82141561153957611538611544565b5b600182019050919050565b7f4e487b7100000000000000000000000000000000000000000000000000000000600052601160045260246000fd5b7f4e487b7100000000000000000000000000000000000000000000000000000000600052601260045260246000fd5b7f4e487b7100000000000000000000000000000000000000000000000000000000600052602260045260246000fd5b7f4e487b7100000000000000000000000000000000000000000000000000000000600052604160045260246000fd5b6000601f19601f8301169050919050565b61161a8161142d565b811461162557600080fd5b50565b6116318161143f565b811461163c57600080fd5b50565b6116488161147d565b811461165357600080fd5b5056fea264697066735822122043311c06c7eede5cd49d4dab29c73dd612c139946cde4d8d75c0708bb87054d064736f6c63430008000033",
  "immutableReferences": {},
  "source": "pragma solidity ^0.8.0;\n\ncontract Voting{\n    struct Request {\n        string description;\n        uint value;\n        address payable recipient;\n        bool complete;\n        uint approvalCount;\n        mapping(address => bool) approvals;\n    }\n    event Event(string message, address sender, uint indexNo);\n    uint public approversCount;\n    Request[] public allRequest;\n    uint public allRequestLength;\n    mapping(address => bool) public approvers;\n    function contribute(address _address) public {\n        if(!approvers[_address]) {\n            approversCount++;\n        }\n        approvers[_address] = true;\n    }\n    function createRequest(string memory _description, uint _value, address payable _recipient) public {\n        uint idx = allRequest.length;\n        allRequest.push();\n        Request storage _request = allRequest[idx];\n        _request.description = _description;\n        _request.value = _value;\n        _request.recipient = _recipient;\n        _request.complete = false;\n        _request.approvalCount = 0;\n        allRequestLength++;\n        //triggering event\n        emit Event(\"Request Created successfully\", msg.sender, allRequest.length - 1);\n    }\n    function approveRequest(uint _index) public {\n        require(approvers[msg.sender], \"Only Approvers required !!\");\n        require(!allRequest[_index].approvals[msg.sender], \"You have voted !!\");\n        allRequest[_index].approvals[msg.sender] = true;\n        allRequest[_index].approvalCount++;\n        //triggering event\n        emit Event(\"You Approved the Request\", msg.sender, _index);\n    }\n    \n    function finalizeRequest(uint index) public returns(bool){\n        require(!allRequest[index].complete, \"Request is already finalised !!\");\n        require(allRequest[index].approvalCount > (approversCount / 2), \"Investors denied your request !!\");\n\n        allRequest[index].complete = true;\n        emit Event(\"Finalization is completed\", msg.sender, index);\n        return true;\n    }   \n    function getRequestDescription(uint index) public view returns(string memory) {\n        return allRequest[index].description;\n    }\n    function getRequestValue(uint index) public view returns(uint) {\n        return allRequest[index].value;\n    }\n    function getRequestRecipient(uint index) public view returns(address payable) {\n        return allRequest[index].recipient;\n    }\n    function getRequestComplete(uint index) public view returns(bool) {\n        return allRequest[index].complete;\n    }\n    function getRequestApprovalCount(uint index) public view returns(uint) {\n        return allRequest[index].approvalCount;\n    }\n}",
  "sourcePath": "/home/ubuntu20/Dev/eth/Github/CryptoTrust/contracts/Voting.sol",
  "compiler": {
    "name": "solc",
    "version": "0.8.0+commit.c7dfd78e.Emscripten.clang"
  },
  "schemaVersion": "3.3.4",
  "updatedAt": "2021-06-20T08:54:54.988Z",
  "networkType": "ethereum",
  "devdoc": {
    "kind": "dev",
    "methods": {},
    "version": 1
  },
  "userdoc": {
    "kind": "user",
    "methods": {},
    "version": 1
  }
}